:020000040800F2
:100000001807002061010008451800082B17000898
:1000100000000000000000000000000000000000E0
:100020000000000000000000000000004918000867
:100030000000000000000000471800084B180008EE
:1000400073010008730100087301000873010008C0
:1000500073010008730100087301000873010008B0
:1000600073010008730100087301000873010008A0
:100070007301000873010008730100087301000890
:100080007301000873010008730100087301000880
:100090007301000873010008730100087301000870
:1000A000730100087301000873010008D51D0008E2
:1000B00073010008730100087301000800F002F8E2
:1000C00000F03EF80CA030C8083824182D18A246BD
:1000D000671EAB4654465D46AC4201D100F030F895
:1000E0007E460F3E0FCCB6460126334200D0FB1AA7
:1000F000A246AB4633431847541E0000741E00004E
:10010000103A02D378C878C1FAD8520701D330C860
:1001100030C101D504680C60704700000023002442
:1001200000250026103A01D378C1FBD8520700D32E
:1001300030C100D50B6070471FB51FBD10B510BD95
:1001400000F07BF91146FFF7F7FF01F06DFE00F0BC
:1001500093F903B4FFF7F2FF03BC00F099F9000034
:100160000748804707480047FEE7FEE7FEE7FEE74F
:10017000FEE7FEE704480549054A064B70470000C4
:10018000BF180008BD000008180100201807002053
:100190001803002018030020FEB5054610460C4643
:1001A000184373D0AE468C460020AD1A01469C41E0
:1001B00067D36646002701243D46B61A9D4102D307
:1001C00013463A462124654676462F04360C3E43B4
:1001D0002D0CB61A9D4104D3150C1B042B4312049D
:1001E0001034654676462F06360A3E432D0AB61A67
:1001F0009D4104D3150E1B022B43120208346546A1
:1002000076462F0736093E432D09B61A9D4104D381
:10021000150F1B012B431201241D65467646AF07BF
:10022000B6083E43AD08B61A9D4104D3950F9B0016
:100230002B439200A41C65467646EF0776083E43A2
:100240006D08B61A9D411AD392185B41641C16E0E2
:100250000018764665464941B71A9D4101910090C4
:1002600009D36046B11A98418E4684460098019998
:100270000025401C6941DD0752082A435B08641EC3
:10028000E6D57246634603B0F0BDFFE700200146A5
:10029000C046C0462A462346F5E701E004C0091FD0
:1002A0000429FBD28B0701D50280801CC90700D02E
:1002B0000270704700290BD0C30702D00270401CA7
:1002C000491E022904D3830702D50280801C891E9F
:1002D000E3E70022EEE70022DFE7002203098B427A
:1002E0002CD3030A8B4211D300239C464EE00346D5
:1002F0000B433CD4002243088B4231D303098B4289
:100300001CD3030A8B4201D394463FE0C3098B42BE
:1003100001D3CB01C01A524183098B4201D38B0117
:10032000C01A524143098B4201D34B01C01A5241BA
:1003300003098B4201D30B01C01A5241C3088B42FF
:1003400001D3CB00C01A524183088B4201D38B00EA
:10035000C01A524143088B4201D34B00C01A52418C
:10036000411A00D201465241104670475DE0CA0F63
:1003700000D04942031000D34042534000229C4623
:1003800003098B422DD3030A8B4212D3FC2289012D
:1003900012BA030A8B420CD3890192118B4208D303
:1003A000890192118B4204D389013AD0921100E065
:1003B0008909C3098B4201D3CB01C01A5241830979
:1003C0008B4201D38B01C01A524143098B4201D3A6
:1003D0004B01C01A524103098B4201D30B01C01AD1
:1003E0005241C3088B4201D3CB00C01A524183084B
:1003F0008B4201D38B00C01A5241D9D243088B42A1
:1004000001D34B00C01A5241411A00D20146634643
:1004100052415B10104601D34042002B00D54942A7
:10042000704763465B1000D3404201B50020C046D0
:10043000C04602BD704770477047754600F024F80B
:10044000AE46050069465346C008C000854618B050
:1004500020B5FFF78FFE60BC00274908B64600268E
:10046000C0C5C0C5C0C5C0C5C0C5C0C5C0C5C0C564
:10047000403D49008D46704710B50446C046C04611
:100480002046FFF766FE10BD00487047B40000200C
:1004900001491820ABBEFEE726000200704772B685
:1004A000FEE70000F7B5044640790E4601280AD061
:1004B0000120607102202071029D102031680540EA
:1004C000042902D040E00220FEBD00F033FA0746C6
:1004D0000298002805D01BE000F02CFAC01B012870
:1004E0000FD82068406B0004F6D4012000F05CF9BE
:1004F0002168B069086415E000F01CFAC01B0128EF
:1005000006D9206908210843206103202071FEBD1F
:100510002068406B0028EFDB012000F045F92168DE
:10052000B06948642168886C214AAA409043F26906
:10053000AA40104388642168C86CFF22AA409043F7
:10054000326AAA401043C8643069012808D1226881
:10055000916B1F20A84081437069A84008439063B5
:100560002268D06B0721A9408843B36831681943DA
:10057000F3681943A9400143D1632068016801224F
:100580009203AA4091430160226811680948A8407B
:1005900081437068A8400843106020680168C02249
:1005A000AA40914301600120207100206071FEBDCE
:1005B000FF030000FE0F000070B5040004D0207996
:1005C0000025002802D005E0012070BD657120469D
:1005D00000F008F802202071256101202071002020
:1005E00070BD000010B586B0044614216846FFF7C0
:1005F00072FE10492068884219D10F48C26B41042D
:100600000A43C263C26B0A400592416B0122114347
:100610004163406B69461040059010200090032014
:100620000190002002900520000700F0CFF806B0EE
:1006300010BD0000007400400010024018B50468AE
:10064000009400688018002904D0143000900360E2
:10065000002018BD0830F9E7F0B54279012A1FD013
:1006600001224271022303710668376810250C4687
:100670002C401546A5402F4337600029016811D052
:100680000D681F26760435401E46A640B54202D1AD
:100690004C681C434C600271002141710846F0BD5A
:1006A0000220F0BD0B689B06DB0E012BF3D14B68DB
:1006B00013434B60EFE70000F0B5002808D0014677
:1006C00020314A79022A05D00422C2630020087131
:1006D0000120F0BD026813680E24A3431360426C2E
:1006E0001468FF2301339C43146002681468640893
:1006F000640014600C4A5568066C1C2426400124D2
:100700002746B7403D435560826CC56C5560026D0D
:10071000002A05D015689D431560826D406D4260CA
:100720004C7100200871F0BD00000240F8B50024B3
:10073000024620325179022903D00421C1630124E9
:100740002DE001680B680E25AB430B6001680B6858
:100750005B085B000B60416C0B68FF250135AB4308
:100760000B6010494D68066C1C231E4001231F4678
:10077000B7403D434D60816CC56C4D60016D0029F3
:1007800006D00E681D02AE430E60416D856D4D6052
:10079000537100211171816B002900D088472046D8
:1007A000F8BD00000000024070B5044600F0C2F839
:1007B0000546601C02D004480078241800F0BAF8FE
:1007C000401BA042FAD370BD00000020F0B500230A
:1007D00003249AE02A4601259D402A407ED00E79C6
:1007E000B607B60F012E01D0022E16D18668274615
:1007F000B4465E00B646B7406646BE43B446CF68D0
:100800007646B7406646374387604668AE430D7903
:10081000ED06ED0F9D40354345600D79ED43AD0785
:1008200008D0C5685F002646BE40B5438E68BE400E
:100830002E43C6600D79AD07AD0F022D0ED1DD0838
:10084000AD002D18AC462D6A5E07F60E0F27B74097
:10085000BD430F69B7402F4365462F6205685F00AF
:100860002646BE40B5430E79B607B60FBE402E43AE
:1008700006604D68AD03AD0F46D09E08264DB6000C
:100880007519AC462D6E9E07F60E0F27B740BD4377
:1008900005273F07B84201D100270FE01F4FB8429C
:1008A00001D101270AE01E4FB84201D1022705E01D
:1008B0001C4FB84201D1032700E00527B7402F4362
:1008C000154D664637662D684E689543F60200D58D
:1008D0001543114F3D607D68954300E014E04E687C
:1008E000B60200D515437D600B4D80356E684F68AC
:1008F0009643BF0300D516436E602E684F6896433B
:10090000FF0300D516432E605B1C0A681546DA40CB
:1009100000D05FE7F0BD0000001802400004005066
:1009200000080050000C0050002A01D0816170477F
:100930008162704701488068704700000000002015
:1009400002488168027889188160704700000020A1
:1009500010B5084800240168821511430160032086
:1009600000F00AF8002801D0012401E000F028F886
:10097000204610BD0020024070B50F4E0024317893
:100980000546002915D07D20C000FFF7A6FC0146D2
:100990000A480068FFF7A1FC00F054FC002808D1C9
:1009A000042D06D200222946401E00F02DF8756065
:1009B00000E00124204670BD000000200C00002053
:1009C00008B50A480168012211430160006810401F
:1009D000009006484038C26B01040A43C263C06BF2
:1009E00008400090C81400F023FC08BD40100240ED
:1009F000002805DBC106C90E0120884001490860B6
:100A00007047000000E100E010B501F0EBF910BD07
:100A100010B50F4C2168032252029143014321601B
:100A2000C11FFF39FA390ED10A4806210068484330
:100A30000949FFF752FC401C02E0002805D0401E87
:100A400061694905F9D4002010BD032010BD0000E4
:100A5000007000400C00002040420F00FEB504462C
:100A600000680027704D714E800355D5002000901E
:100A7000F06BC00007D4F16BA8050143F163F16B83
:100A80000140012000906A4801688215114301600D
:100A9000FFF750FF019005E0FFF74CFF0199401A66
:100AA000022825D862480068C005F5D5E869032109
:100AB000090208400FD0216B81420CD0E869032164
:100AC0000902EA698843012109040A43EA61EA69E3
:100AD0008A43EA61E861C0070FD0FFF72BFF01905E
:100AE00008E0FFF727FF0199411A5248814201D9D6
:100AF000032709E0E8698007F3D5E86903210902C3
:100B00008843216B0843E8610098002804D0F16B0A
:100B1000012000078143F1632078C00705D0686990
:100B2000616880088000084368612078800705D5E7
:100B300068690C218843A168084368612078C00671
:100B400006D56869032189028843E1680843686122
:100B50002088800506D56869032189048843A16936
:100B6000084368612088400506D5686903210905A6
:100B70008843E169084368612078800606D5686982
:100B800003210903884321690843686120884004E0
:100B90000ED56869216A80008008084368610121D8
:100BA000206A8907884203D1F06889130843F060FE
:100BB0002068000305D5686940218843616A0843BD
:100BC0006861206881021C480BD569698210A36A9C
:100BD000914319436961A16A914202D1F1680143CD
:100BE000F160216849020AD56969E26A81431143CB
:100BF0006961E16A814202D1F1680143F1602088B4
:100C000000050FD56869032189038843616908439A
:100C10006861012160698903884203D1F068890015
:100C20000843F0603846FEBD40100240001002400C
:100C3000007000408813000000000001F8B50F4666
:100C4000060043D04D4D28684007400FB84213D2EC
:100C50002868C008C00038432860FFF76BFE0446D0
:100C600005E0FFF767FE011B4548814261D828680F
:100C70004007400FB842F4D13068424C81070DD58F
:100C8000400704D5A068072109030843A060A068B5
:100C90000F2109028843B1680843A0603078C0077B
:100CA00032D0706801280AD002280BD000280FD05B
:100CB0003449403103280ED0C969890704E021680E
:100CC000890301E021688901002906DB0120F8BDC4
:100CD00021684905F8E7096AEFE7A168C908C90072
:100CE0000143A160FFF726FE009006E0FFF722FE19
:100CF0000099411A224881421BD8A0683821084037
:100D00007168C9008842F1D128684007400FB84295
:100D100017D91A480168C908C90039430160FFF7AB
:100D200009FE054607E0FFF705FE411B1448814216
:100D300001D90320F8BD114800684007400FB842B0
:100D4000F1D13078400706D5A06807210903884310
:100D5000F1680843A06000F031F8A1683C228909DD
:100D60001140094A515CC906C90EC84007490860CC
:100D700007480068FFF700FEF8BD000000200240B1
:100D80008813000000100240EC1E00080C00002038
:100D9000040000200648074900688968064A49049B
:100DA000490F8900515CC906C90EC8407047000050
:100DB0000C000020001002402C1F000810B5204C31
:100DC000A068204A8006400F16D0A0688006410F18
:100DD000501001290FD0A1688906490F022912D0AD
:100DE000A0688006400F042823D0A0688006400F2A
:100DF000032821D0002010BD206801218004400F6D
:100E00008140104612E0E1688B07E1689B0F4906BC
:100E1000490F491C032B00D01046FFF75EFAE1682A
:100E20004904490E4843E168490F491CFFF755FA48
:100E300010BD0120C00310BD7D20000210BD0000C8
:100E4000001002400024F400F8B504007ED02078A1
:100E50003827C007ED4D002846D0A868E96838401B
:100E60008907890F102802D008280BD001E0032938
:100E700008D001206268000482420AD12968014337
:100E8000296015E0286880032ED560680028DDD031
:100E90002AE0052301211B0489049A422A6802D111
:100EA0000A432A60EAE782432A6028688843286068
:100EB000606800280CD0FFF73DFD064604E0FFF710
:100EC00039FD801B642873D828688003F7D50BE0B0
:100ED000FFF730FD064604E0FFF72CFD801B642879
:100EE000F1D828688003F7D42078800769D5A868EE
:100EF000E96838408A070721920FC902102802D0FA
:100F0000002813D001E0022A10D0E068002846D063
:100F1000286888432169084328602868FF21013137
:100F200008432860FFF706FD06462CE02A685205B4
:100F300002D5E268002A89D06A687F231B029A439F
:100F400063691B021A436A60002800E08DE00ED13D
:100F500028688843216908432860286801218004A3
:100F6000400F8140AA48FFF7B8F9AA490860AA488B
:100F70000068FFF701FD002877D122E0FFF7DAFCD7
:100F8000801B02289FD828684005F7D568687F2114
:100F900009028843616909020843686011E0296811
:100FA000FF20013081432960FFF7C4FC064605E0BD
:100FB00098E0FFF7BFFC801B022884D82868400512
:100FC000F7D42078954E00072ED5A8688006400FEC
:100FD00003280AD0A0690028306A16D001210843EE
:100FE0003062FFF7A7FC07460BE0306A80071BD58D
:100FF000A06900289FD017E0FFF79CFCC01B0228C7
:1010000070D8306A8007F7D50EE0400840003062A3
:10101000FFF790FC074604E0FFF78CFCC01B02289A
:1010200060D8306A8007F7D4207840076CD5A8686C
:1010300000278006400F042818D0E86BC00008D4B1
:10104000E96B012000070143E963E96B01400127D7
:10105000009173480168C90519D4016882151143CC
:101060000160FFF767FC00900DE083E0F069800706
:101070004AD5A06800287DD046E0FFF75BFC0099C8
:10108000401A02282ED866480068C005F5D5A16828
:10109000012910D004200529F16911D0490849001F
:1010A000F161F1698143F161A068002816D0FFF772
:1010B00041FC00900EE0F06901210843F061F3E784
:1010C0000143F161F7E7FFF735FC0099411A5548F4
:1010D000814267D8F0698007F5D50EE0FFF72AFC5A
:1010E000009007E05EE0FFF725FC0099411A4D48AB
:1010F000814257D8F0698007F5D4002F04D0E86BFF
:10110000012109078843E863E06900287BD0A968CA
:101110008906490F02294FD0012636060228286881
:1011200005D0B0432860FFF705FC04463CE0B0431F
:101130002860FFF7FFFB074604E0FFF7FBFBC01B3F
:1011400002282FD828688001F7D4616A206AA26A31
:101150000843E16A120211430843216B0843616BA3
:101160000843E968304A11400843E8602868304382
:10117000286000E045E0E868012109070843E860CD
:10118000FFF7D8FB044604E0FFF7D4FB001B02285E
:1011900008D828688001F7D535E0FFF7CBFB001BA6
:1011A000022801D90320F8BD28688001F5D4E86839
:1011B0001E490840E86026E00128F4D0E868226A69
:1011C0008107890F91421CD17021626A01409142CE
:1011D00017D17F21A26A090201401202914210D167
:1011E0001F214904E26A014091420AD107214906C0
:1011F000226B0140914204D1400F616B400788424D
:1012000001D00120F8BD0020F8BD00000010024010
:101210000024F4000C0000200400002040100240D4
:1012200000700040881300008C80C111FCFFFEEEAE
:1012300003490A6803235B029A4302430A6070472A
:1012400000000140094910B5401E884201D9012023
:1012500010BD074C60610321081F00F0C3FD002092
:10126000A06107202061002010BD0000FFFFFF00EB
:1012700000E000E010B5014680310A78012A15D05F
:1012800001220A7024224A60026813681468640804
:1012900064001460012252079343002242660068F2
:1012A0000360202048600A70104610BD022010BD67
:1012B0007047704770B50446054680342078012891
:1012C0001AD0012020702420606028680668026817
:1012D0005208520002602868826807235B069A431E
:1012E0000A438260284600F0F9FA28680660202048
:1012F00060600020207070BD022070BD70B5044693
:10130000054680342078012819D00120207024203F
:101310006060286806680268520852000260286807
:101320008268D200D2080A438260284600F0D6FACA
:1013300028680660202060600020207070BD0220B8
:1013400070BD704770477047F8B503680446D969A7
:1013500018689A68B24D0E462E4025468035002EFC
:1013600075D0B04EB04F1640074037436ED0CF0710
:1013700006D0C70504D501271F62EB683B43EB602D
:101380008B0708D5D30706D0276802233B62EB689A
:1013900004273B43EB604B0708D5D30706D02768EB
:1013A00004233B62EB6802273B43EB600B0709D544
:1013B00020230340334305D0266808233362EE68B8
:1013C0001E43EE600B0509D5430107D501232668AE
:1013D000DB023362EB6820263343EB60EB68002BC3
:1013E00042D089060AD520210840C9050A40104389
:1013F00004D0216F002901D020468847E868216881
:101400008968490602D42821084232D0204600F0DB
:1014100029FB21688868400627D5EFF31080012258
:1014200082F310888B68402293438B6080F310888E
:10143000E06F002819D07D498163E06FFFF776F9EE
:10144000002811D0E06F816B0DE000E017E08E0600
:1014500015D5012720263F07064017403E430ED0F2
:10146000216FB1E020468847F8BD2046FFF76BFFAB
:10147000F8BD2046FFF767FF0020E860F8BDE66E84
:10148000012E7CD1CE067AD5C60678D510221A62F6
:1014900023689868264640064036002847DAE16F00
:1014A000086840680004000CE8D0B78B8742E5D993
:1014B000F08308680068800634D4EFF310800121BF
:1014C00081F3108819681701B943196080F31088F7
:1014D000EFF31080012181F3108821688B685B088D
:1014E0005B008B6080F31088EFF31080012181F3A3
:1014F000108821688B684027BB438B6080F310887D
:101500002020A8600020E066EFF31080012181F325
:10151000108821680B6893430B6080F31088E06F9C
:10152000FFF7CAF8B08BF18B401A81B233E0B08B71
:10153000F18B401A81B2F08B00289FD000299DD0FA
:10154000EFF31080012686F310881E68FF272137ED
:10155000BE431E6080F31088EFF31080012383F3F5
:10156000108823689E682F4FFF433E409E6080F3A3
:1015700010882020A8600020E066206700E00EE0D0
:10158000EFF31080012383F3108823681D689543CF
:101590001D6080F310882046FFF78AFEF8BDCE025A
:1015A00008D5560206D50120000518622046FFF72F
:1015B000C9FEF8BD0E060BD501278026FF050640A3
:1015C0003A40164304D0616F002900D04AE7F8BDC5
:1015D0004A0614D5420612D52046EFF310810122A7
:1015E00082F310881C68402294431C6081F31088A9
:1015F000202169600021416700F096F8F8BD0A02D9
:1016000005D5420003D52046FFF79BFEF8BDC90172
:10161000FCD50028FADA2046FFF74BFEF8BD0000A3
:101620000F0800000100001020010004511A0008FA
:1016300070B5040005D0254680356868002802D0C2
:1016400006E0012070BD00202870204600F026F83A
:10165000242068602068016849084900016020462C
:1016600000F032FA0128EDD0A06A002802D020460E
:1016700000F056F9206841680922D2029143416086
:10168000206881682A2291438160206801680122D4
:1016900011430160204600F0A9F970BD10B594B067
:1016A000044614210DA8FEF716FE34216846FEF705
:1016B00012FE1A49206888422DD101200024009092
:1016C00001946846FFF7CAF9002801D0FEF7E7FE4B
:1016D00013480268012189030A4302600068084038
:1016E00012900F484038426B02210A434263406B1C
:1016F0000DAA08401290C02013C210940DA90948E9
:101700001194FFF763F8002202211B20FFF77CF9F8
:101710001B20FFF76DF914B010BD00000038014028
:1017200040100240000400507047FEE700B589B049
:1017300024216846FEF7CFFD0E490D480860084693
:10174000FEF73AFF002801D0FEF7A9FE0020009026
:101750000190029003900246049069460548FEF706
:10176000A1FE002801D0FEF79AFE09B000BD0000DE
:10177000007400401000002070B586B01421684647
:10178000FEF7A9FD1348426B04210A434263426BF2
:101790000A400592416B012421434163416B214082
:1017A0000591426B02210A434263406B0A4E084096
:1017B0008D030590002229463046FFF7B5F8002139
:1017C000029103910095019469463046FEF7FEFFB1
:1017D00006B070BD001002400008005010B5184857
:1017E00016490160E1214902416000218160C16028
:1017F00001618161C16101620C22416242618162C9
:10180000FFF716FF002801D0FEF749FE00210C4823
:10181000FFF774FD002801D0FEF741FE00210848C3
:10182000FFF748FD002801D0FEF739FE0448FFF716
:1018300021FD002801D0FEF732FE10BD0038014026
:1018400024000020FEE77047704710B5FFF778F8D6
:1018500010BD30B593B038216846FEF73CFD002539
:1018600001200E950F95109540021195FFF7D0F8C5
:101870000224E001039000944020059008200A9083
:1018800080030B90079400020C90089400010495CB
:101890000D9009956846FFF7D7FA002801D072B677
:1018A000FEE707200EA931C102210EA81195FFF70E
:1018B000C5F9002801D072B6FEE713B030BD7047FD
:1018C00000207D21C900401C8842FCD370470020C5
:1018D00019210902401C8842FCD37047F8B5044620
:1018E000416E4034002915D0006881688068090184
:1018F0004D0F0A4E400F3746315C083F385CC00040
:10190000FEF7EBFC6085785D715DC000FEF7E5FCDD
:101910002085F8BD01206085FAE70000E41E00087C
:1019200010B5018DC90707D001684A6801235B041F
:101930009A43C36A1A434A60018D890707D5016833
:101940004A6801231B049A43036B1A434A60018DC2
:10195000490707D501684A6801239B049A43436BF2
:101960001A434A60018D090707D501684A680123B7
:10197000DB039A43836B1A434A60018DC90607D57E
:101980000268916801231B039943C36B194391605B
:10199000018D890607D501688A6801235B039A4394
:1019A000036C1A438A60018D490612D503685A6890
:1019B00001210905446C8A4322435A60426C8A42E1
:1019C00007D10268516803235B059943836C19436F
:1019D0005160018D090607D501684A680123DB04BF
:1019E000C06C9A4302434A6010BD0000FEB5054634
:1019F000002680350446EE60FEF79CFF01902068CB
:101A00000068124F000709D50121009700224905FF
:101A10002046019B00F074F900280DD12068006871
:101A200040070BD501210097002289052046019B24
:101A300000F066F9002801D00320FEBD2020686078
:101A4000A860E6662E700020FEBD0000FFFFFF01CB
:101A500010B5806A002201464031CA83CA82FFF76E
:101A600072FC10BD10B5EFF31081012282F31088D3
:101A700002681368FF242134A343136081F31088A4
:101A8000EFF31081012282F31088026893680D4CF5
:101A90002340936081F31088C16E01290BD1EFF3CD
:101AA0001081012282F31088026813681024A34376
:101AB000136081F31088202288210A500021C1661A
:101AC000016710BDFEFFFFEFF8B5044601688068AE
:101AD0002269E5691043626900262A4310437C4B62
:101AE0000A687C4D2A4002430A602068416803224C
:101AF00012039143E268114341602168A069994251
:101B000001D0226A10438A68734D2A4002438A60DA
:101B10002068C16A626A090909011143C1626F49FB
:101B200022686F488A420AD140698007800F2CD012
:101B300001283DD0022828D0032825D122E0694978
:101B40008A420AD140690C2108401ED004281CD0CA
:101B500008282BD00C2817D114E063498A4223D0DF
:101B600062498A4220D09A420ED141690320800204
:101B7000014019D001208002091A19D0091A15D084
:101B8000814201D1082000E0102001255849594F19
:101B9000ED039A423FD100280CD002280DD0042832
:101BA0000DD0082836D10EE00020EEE70220ECE749
:101BB0000420EAE7FFF7EEF803E00D4603E0FFF745
:101BC000FDF805007AD0606A4000395A2846009135
:101BD000FEF783FB676879007918814269D8390379
:101BE000814266D3002328461946009AFEF7D4FAAC
:101BF000020E09020302780811431818002251410D
:101C00003A460023FEF7C8FA032109023A4A411A6C
:101C1000914251D94DE0E269AA4228D1002806D06C
:101C2000022807D0042807D0082842D108E0FFF78F
:101C3000B1F803E00D4603E0FFF7C0F805003DD022
:101C4000606A4000395A2846FEF747FB6168400049
:101C50004A088018FEF741FB0146284A1039914294
:101C600027D8511C01400007400F084324E00028FA
:101C700006D0022807D0042807D0082819D108E088
:101C8000FFF788F803E00D4603E0FFF797F805003B
:101C900014D0606A4000395A2846FEF71EFB61687E
:101CA0004A088018FEF719FB0146144A1039914280
:101CB00001D9012602E080B22168C86020460121D6
:101CC0004030418501850020206760673046F8BDBF
:101CD00000800040F369FFCFFFF4FF11003801409E
:101CE000401002400044004000480040004C0040CA
:101CF0000024F400C41E0008FFFC0F00EFFF0000EA
:101D0000FFB581B005461746044680350A9E54E06B
:101D1000701C52D0FEF70EFE0499401AB0422FD824
:101D2000002E2DD020680168490746D5C069C04300
:101D3000000542D401202168C0020862EFF3108040
:101D4000012181F3108821680B68FF22A13293439F
:101D50000B6080F31088EFF31080012181F310886D
:101D600021688A68520852008A6080F31088202017
:101D70006860A860E86000202870032005B0F0BD0E
:101D8000EFF31080012181F3108821680A68FF2396
:101D9000A1339A430A6080F31088EFF31080012189
:101DA00081F3108821688A68520852008A6080F3A3
:101DB000108820206860A860DDE72068C16902986B
:101DC000884304D00020B842A2D00020D6E70120EA
:101DD000F9E7000010B50248FFF7B6FA10BD0000A1
:101DE000240000208307FF22DB0E9A408907090E9A
:101DF0009940002808DB830809489B001B181868D5
:101E000090430843186070470007000F08388308A4
:101E100004489B001B18D86990430843D861704759
:101E200000E400E000ED00E0FEF792FDFFF711FD99
:101E3000FFF7A2FCFFF7D2FCFFF778FC0A20FEF7C1
:101E4000B3FC002401261C4DF6030122314628462E
:101E5000FEF76AFDFFF73BFD002231462846FEF7FC
:101E600063FDFFF72DFD641CE4B2072CEDD30122C6
:101E700031462846FEF758FD00231A4619460F48FA
:101E8000FEF7DCFB00210D48FEF7E6FB0C4C7D2540
:101E9000ED000022234611460848FEF7CFFB032041
:101EA000FEF782FC00231A4619460448FEF7C6FBDB
:101EB0002846FEF779FCECE70008005010000020EF
:101EC000FF0F0000010002000400060008000A00E5
:101ED0000C001000200040008000000101010103FF
:101EE00007010000080402040801010100000000CD
:101EF00000000000000000000000000000000000E2
:101F000000000000000000000000000001000000D0
:101F100002000000030000000400000006000000B2
:101F20000700000008000000090000000000000099
:101F300000000000000000000000000001000000A0
:101F40000200000003000000040000006C1F0008F5
:101F50000000002010000000000100087C1F0008A5
:101F600010000020080700001C010008010000000C
:0C1F700004000000000000000024F40049
:04000005080000BD32
:00000001FF
