:020000040800F2
:10000000E8040020D1000008991700087F160008B6
:1000100000000000000000000000000000000000E0
:100020000000000000000000000000009D17000814
:1000300000000000000000009B1700089F17000848
:10004000E3000008E3000008E3000008E300000804
:10005000E3000008E3000008E3000008E3000008F4
:10006000E3000008E3000008E3000008E3000008E4
:10007000E3000008E3000008E3000008E3000008D4
:10008000E3000008E3000008E3000008E3000008C4
:10009000E3000008E3000008E3000008E3000008B4
:1000A000E3000008E3000008E3000008DD22000888
:1000B000E3000008E3000008E30000080348854669
:1000C00000F08EF800480047DD240008E804002016
:1000D0000448804704480047FEE7FEE7FEE7FEE7E6
:1000E000FEE7FEE713180008BD00000830B50B4618
:1000F000014600202022012409E00D46D5409D4202
:1001000005D31D469540491B254695404019154687
:10011000521E002DF1DC30BDF0B51FB406460020A4
:1001200082B005464024019100901BE001992246CF
:100130000F46304600F042F8049A059B801A994118
:1001400010D310461946224600F028F8361A8F417F
:100150000197224601200021009F00F01FF8381867
:100160004D4100902046641E0028DFDC019B009872
:100170002946324607B0F0BDD2B201E00270401C01
:10018000491EFBD270470022F6E710B513460A4617
:1001900004461946FFF7F0FF204610BD10B5202A8F
:1001A00004DB0146203A9140002010BD91402023FD
:1001B0009C1A0346E3401943904010BD10B5202A15
:1001C00004DB0846203AD040002110BD0B46D34046
:1001D000D0402024A21A91400843194610BD0000C7
:1001E000064C0125064E05E0E36807CC2B430C3C8A
:1001F00098471034B442F7D3FFF764FFE8250008AE
:100200000826000872B6FEE7F7B5044640790E46A8
:1002100001280AD00120607102202071029D102067
:1002200031680540042902D040E00220FEBD00F004
:1002300033FA07460298002805D01BE000F02CFA9C
:10024000C01B01280FD82068406B0004F6D40120A1
:1002500000F05CF92168B069086415E000F01CFA50
:10026000C01B012806D9206908210843206103200A
:100270002071FEBD2068406B0028EFDB012000F0FC
:1002800045F92168B06948642168886C214AAA4010
:100290009043F269AA40104388642168C86CFF2229
:1002A000AA409043326AAA401043C86430690128CA
:1002B00008D12268916B1F20A84081437069A84033
:1002C000084390632268D06B0721A9408843B36834
:1002D00031681943F3681943A9400143D163206889
:1002E000016801229203AA409143016022681168CB
:1002F0000948A84081437068A840084310602068FE
:100300000168C022AA4091430160012020710020B1
:100310006071FEBDFF030000FE0F000070B5040019
:1003200004D020790025002802D005E0012070BD0E
:100330006571204600F008F8022020712561012037
:100340002071002070BD000010B586B00446142155
:100350006846FFF718FF10492068884219D10F48F6
:10036000C26B41040A43C263C26B0A400592416BEF
:10037000012211434163406B6946104005901020F3
:10038000009003200190002002900520000700F05B
:10039000CFF806B010BD000000740040001002400D
:1003A00018B50468009400688018002904D014303F
:1003B00000900360002018BD0830F9E7F0B54279DD
:1003C000012A1FD001224271022303710668376897
:1003D00010250C462C401546A5402F4337600029B8
:1003E000016811D00D681F26760435401E46A640D0
:1003F000B54202D14C681C434C600271002141712E
:100400000846F0BD0220F0BD0B689B06DB0E012BF9
:10041000F3D14B6813434B60EFE70000F0B50028C1
:1004200008D0014620314A79022A05D00422C2634D
:10043000002008710120F0BD026813680E24A34358
:100440001360426C1468FF2301339C4314600268FC
:1004500014686408640014600C4A5568066C1C2417
:10046000264001242746B7403D435560826CC56C49
:100470005560026D002A05D015689D431560826D98
:10048000406D42604C7100200871F0BD00000240D8
:10049000F8B50024024620325179022903D0042104
:1004A000C16301242DE001680B680E25AB430B608E
:1004B00001680B685B085B000B60416C0B68FF25F3
:1004C0000135AB430B6010494D68066C1C231E4080
:1004D00001231F46B7403D434D60816CC56C4D60A4
:1004E000016D002906D00E681D02AE430E60416DFD
:1004F000856D4D60537100211171816B002900D011
:1005000088472046F8BD00000000024070B5044650
:1005100000F0C2F80546601C02D004480078241898
:1005200000F0BAF8401BA042FAD370BD24000020AE
:10053000F0B5002303249AE02A4601259D402A4075
:100540007ED00E79B607B60F012E01D0022E16D13D
:1005500086682746B4465E00B646B7406646BE4348
:10056000B446CF687646B7406646374387604668EC
:10057000AE430D79ED06ED0F9D40354345600D7995
:10058000ED43AD0708D0C5685F002646BE40B543C1
:100590008E68BE402E43C6600D79AD07AD0F022DAB
:1005A0000ED1DD08AD002D18AC462D6A5E07F60EA3
:1005B0000F27B740BD430F69B7402F4365462F62F1
:1005C00005685F002646BE40B5430E79B607B60FF4
:1005D000BE402E4306604D68AD03AD0F46D09E0869
:1005E000264DB6007519AC462D6E9E07F60E0F27E8
:1005F000B740BD4305273F07B84201D100270FE0B0
:100600001F4FB84201D101270AE01E4FB84201D165
:10061000022705E01C4FB84201D1032700E005275F
:10062000B7402F43154D664637662D684E68954393
:10063000F60200D51543114F3D607D68954300E0FB
:1006400014E04E68B60200D515437D600B4D803531
:100650006E684F689643BF0300D516436E602E68E0
:100660004F689643FF0300D516432E605B1C0A6853
:100670001546DA4000D05FE7F0BD000000180240E8
:100680000004005000080050000C0050002A01D067
:10069000816170478162704701488068704700003F
:1006A0002400002002488168027889188160704720
:1006B0002400002010B50848002401688215114369
:1006C0000160032000F00AF8002801D0012401E0B5
:1006D00000F028F8204610BD0020024070B50F4EF3
:1006E000002431780546002915D07D20C000FFF791
:1006F000FDFC01460A480068FFF7F8FC00F054FCD6
:10070000002808D1042D06D200222946401E00F000
:100710002DF8756000E00124204670BD2400002003
:100720003000002008B50A48016801221143016029
:1007300000681040009006484038C26B01040A432C
:10074000C263C06B08400090C81400F023FC08BDD1
:1007500040100240002805DBC106C90E0120884078
:10076000014908607047000000E100E010B501F0A9
:10077000CDFD10BD10B50F4C2168032252029143EC
:1007800001432160C11FFF39FA390ED10A48062101
:10079000006848430949FFF7A9FC401C02E0002813
:1007A00005D0401E61694905F9D4002010BD032021
:1007B00010BD0000007000403000002040420F00DB
:1007C000FEB5044600680027704D714E800355D574
:1007D00000200090F06BC00007D4F16BA805014326
:1007E000F163F16B0140012000906A4801688215B5
:1007F00011430160FFF750FF019005E0FFF74CFF48
:100800000199401A022825D862480068C005F5D52C
:10081000E8690321090208400FD0216B81420CD006
:10082000E86903210902EA698843012109040A43AE
:10083000EA61EA698A43EA61E861C0070FD0FFF71D
:100840002BFF019008E0FFF727FF0199411A52485A
:10085000814201D9032709E0E8698007F3D5E869F7
:10086000032109028843216B0843E86100980028AE
:1008700004D0F16B012000078143F1632078C007A9
:1008800005D0686961688008800008436861207845
:10089000800705D568690C218843A1680843686111
:1008A0002078C00606D56869032189028843E1687B
:1008B000084368612088800506D56869032189049A
:1008C0008843A169084368612088400506D56869A6
:1008D000032109058843E16908436861207880069F
:1008E00006D56869032109038843216908436861C3
:1008F000208840040ED56869216A8000800808437A
:1009000068610121206A8907884203D1F068891350
:100910000843F0602068000305D5686940218843DA
:10092000616A08436861206881021C480BD56969C7
:100930008210A36A914319436961A16A914202D16D
:10094000F1680143F160216849020AD56969E26AE8
:10095000814311436961E16A814202D1F168014337
:10096000F160208800050FD5686903218903884359
:10097000616908436861012160698903884203D184
:10098000F06889000843F0603846FEBD4010024020
:1009900000100240007000408813000000000001B9
:1009A000F8B50F46060043D04D4D28684007400F6C
:1009B000B84213D22868C008C00038432860FFF747
:1009C0006BFE044605E0FFF767FE011B45488142C8
:1009D00061D828684007400FB842F4D13068424CD3
:1009E00081070DD5400704D5A068072109030843F6
:1009F000A060A0680F2109028843B1680843A06085
:100A00003078C00732D0706801280AD002280BD095
:100A100000280FD03449403103280ED0C969890716
:100A200004E02168890301E021688901002906DBCF
:100A30000120F8BD21684905F8E7096AEFE7A168D8
:100A4000C908C9000143A160FFF726FE009006E037
:100A5000FFF722FE0099411A224881421BD8A06864
:100A6000382108407168C9008842F1D128684007E0
:100A7000400FB84217D91A480168C908C90039435C
:100A80000160FFF709FE054607E0FFF705FE411B81
:100A90001448814201D90320F8BD1148006840077D
:100AA000400FB842F1D13078400706D5A068072141
:100AB00009038843F1680843A06000F031F8A16899
:100AC0003C2289091140094A515CC906C90EC84037
:100AD0000749086007480068FFF700FEF8BD0000FE
:100AE0000020024088130000001002408825000802
:100AF0003000002028000020064807490068896867
:100B0000064A4904490F8900515CC906C90EC8400C
:100B1000704700003000002000100240C825000887
:100B200010B5204CA068204A8006400F16D0A0685F
:100B30008006410F501001290FD0A1688906490F86
:100B4000022912D0A0688006400F042823D0A06894
:100B50008006400F032821D0002010BD206801210D
:100B60008004400F8140104612E0E1688B07E16885
:100B70009B0F4906490F491C032B00D01046FFF775
:100B8000B5FAE1684904490E4843E168490F491C38
:100B9000FFF7ACFA10BD0120C00310BD7D2000029C
:100BA00010BD0000001002400024F400F8B504005D
:100BB0007ED020783827C007ED4D002846D0A868A1
:100BC000E96838408907890F102802D008280BD01F
:100BD00001E0032908D001206268000482420AD1A2
:100BE00029680143296015E0286880032ED56068D4
:100BF0000028DDD02AE0052301211B0489049A4244
:100C00002A6802D10A432A60EAE782432A602868F8
:100C100088432860606800280CD0FFF73DFD064639
:100C200004E0FFF739FD801B642873D8286880032F
:100C3000F7D50BE0FFF730FD064604E0FFF72CFD8B
:100C4000801B6428F1D828688003F7D420788007B7
:100C500069D5A868E96838408A070721920FC90258
:100C6000102802D0002813D001E0022A10D0E0683A
:100C7000002846D0286888432169084328602868EE
:100C8000FF21013108432860FFF706FD06462CE0EE
:100C90002A68520502D5E268002A89D06A687F2353
:100CA0001B029A4363691B021A436A60002800E032
:100CB0008DE00ED1286888432169084328602868A0
:100CC00001218004400F8140AA48FFF70FFAAA498A
:100CD0000860AA480068FFF701FD002877D122E0EC
:100CE000FFF7DAFC801B02289FD828684005F7D55B
:100CF00068687F21090288436169090208436860C6
:100D000011E02968FF20013081432960FFF7C4FC0E
:100D1000064605E098E0FFF7BFFC801B022884D858
:100D200028684005F7D42078954E00072ED5A8688E
:100D30008006400F03280AD0A0690028306A16D028
:100D4000012108433062FFF7A7FC07460BE0306A39
:100D500080071BD5A06900289FD017E0FFF79CFCF7
:100D6000C01B022870D8306A8007F7D50EE0400813
:100D700040003062FFF790FC074604E0FFF78CFC70
:100D8000C01B022860D8306A8007F7D4207840075B
:100D90006CD5A86800278006400F042818D0E86B9F
:100DA000C00008D4E96B012000070143E963E96B47
:100DB00001400127009173480168C90519D40168F1
:100DC000821511430160FFF767FC00900DE083E09E
:100DD000F06980074AD5A06800287DD046E0FFF77B
:100DE0005BFC0099401A02282ED866480068C005AE
:100DF000F5D5A168012910D004200529F16911D089
:100E000049084900F161F1698143F161A068002856
:100E100016D0FFF741FC00900EE0F0690121084375
:100E2000F061F3E70143F161F7E7FFF735FC009963
:100E3000411A5548814267D8F0698007F5D50EE020
:100E4000FFF72AFC009007E05EE0FFF725FC009921
:100E5000411A4D48814257D8F0698007F5D4002FD8
:100E600004D0E86B012109078843E863E0690028A2
:100E70007BD0A9688906490F02294FD00126360682
:100E80000228286805D0B0432860FFF705FC044617
:100E90003CE0B0432860FFF7FFFB074604E0FFF7A4
:100EA000FBFBC01B02282FD828688001F7D4616A99
:100EB000206AA26A0843E16A120211430843216BC7
:100EC0000843616B0843E968304A11400843E86011
:100ED00028683043286000E045E0E8680121090700
:100EE0000843E860FFF7D8FB044604E0FFF7D4FBB3
:100EF000001B022808D828688001F7D535E0FFF7E5
:100F0000CBFB001B022801D90320F8BD2868800113
:100F1000F5D4E8681E490840E86026E00128F4D0CE
:100F2000E868226A8107890F91421CD17021626AA8
:100F30000140914217D17F21A26A090201401202A9
:100F4000914210D11F214904E26A014091420AD125
:100F500007214906226B0140914204D1400F616B89
:100F60004007884201D00120F8BD0020F8BD0000F4
:100F7000001002400024F40030000020280000206F
:100F80004010024000700040881300008C80C111A6
:100F9000FCFFFEEE03490A6803235B029A43024307
:100FA0000A60704700000140094910B5401E8842A0
:100FB00001D9012010BD074C60610321081F01F019
:100FC000A5F90020A06107202061002010BD0000CD
:100FD000FFFFFF0000E000E010B5014680310A7815
:100FE000012A15D001220A7024224A60026813687F
:100FF00014686408640014600122520793430022BD
:10100000426600680360202048600A70104610BDE8
:10101000022010BD7047704770B504460546803405
:10102000207801281AD001202070242060602868D0
:101030000668026852085200026028688268072326
:101040005B069A430A438260284600F0F9FB286851
:101050000660202060600020207070BD022070BDFE
:1010600070B50446054680342078012819D0012047
:1010700020702420606028680668026852085200C8
:10108000026028688268D200D2080A43826028463B
:1010900000F0D6FB286806602020606000202070E9
:1010A00070BD022070BD704770477047F8B5036887
:1010B0000446D96918689A68B24D0E462E402546F6
:1010C0008035002E75D0B04EB04F164007403743E4
:1010D0006ED0CF0706D0C70504D501271F62EB6885
:1010E0003B43EB608B0708D5D30706D02768022364
:1010F0003B62EB6804273B43EB604B0708D5D30703
:1011000006D0276804233B62EB6802273B43EB6071
:101110000B0709D520230340334305D02668082355
:101120003362EE681E43EE600B0509D5430107D517
:1011300001232668DB023362EB6820263343EB6031
:10114000EB68002B42D089060AD520210840C9054A
:101150000A40104304D0216F002901D0204688475F
:10116000E86821688968490602D42821084232D0FB
:10117000204600F029FC21688868400627D5EFF357
:101180001080012282F310888B68402293438B6089
:1011900080F31088E06F002819D07D498163E06FEB
:1011A000FFF776F9002811D0E06F816B0DE000E0C9
:1011B00017E08E0615D5012720263F070640174069
:1011C0003E430ED0216FB1E020468847F8BD20464F
:1011D000FFF76BFFF8BD2046FFF767FF0020E860D0
:1011E000F8BDE66E012E7CD1CE067AD5C60678D53E
:1011F00010221A6223689868264640064036002866
:1012000047DAE16F086840680004000CE8D0B78B4B
:101210008742E5D9F08308680068800634D4EFF38C
:101220001080012181F3108819681701B9431960F2
:1012300080F31088EFF31080012181F3108821687A
:101240008B685B085B008B6080F31088EFF3108085
:10125000012181F3108821688B684027BB438B6094
:1012600080F310882020A8600020E066EFF3108053
:10127000012181F3108821680B6893430B6080F390
:101280001088E06FFFF7CAF8B08BF18B401A81B27B
:1012900033E0B08BF18B401A81B2F08B00289FD0E5
:1012A00000299DD0EFF31080012686F310881E6878
:1012B000FF272137BE431E6080F31088EFF31080B4
:1012C000012383F3108823689E682F4FFF433E401D
:1012D0009E6080F310882020A8600020E0662067D0
:1012E00000E00EE0EFF31080012383F31088236801
:1012F0001D6895431D6080F310882046FFF78AFE25
:10130000F8BDCE0208D5560206D5012000051862A8
:101310002046FFF7C9FEF8BD0E060BD50127802633
:10132000FF0506403A40164304D0616F002900D003
:101330004AE7F8BD4A0614D5420612D52046EFF317
:101340001081012282F310881C68402294431C60A3
:1013500081F31088202169600021416700F08EF937
:10136000F8BD0A0205D5420003D52046FFF79BFED3
:10137000F8BDC901FCD50028FADA2046FFF74BFE7C
:10138000F8BD00000F08000001000010200100045B
:10139000B519000870B5040005D025468035686889
:1013A000002802D006E0012070BD002028702046F1
:1013B00000F026F824206860206801684908490088
:1013C0000160204600F06AFD0128EDD0A06A0028E7
:1013D00002D0204600F056FA206841680922D20265
:1013E00091434160206881682A229143816020688E
:1013F0000168012211430160204600F0A9FA70BD86
:1014000010B594B0044614210DA8FEF7BCFE34219B
:101410006846FEF7B8FE1A49206888422DD101209F
:101420000024009001946846FFF7CAF9002801D013
:10143000FEF7E8FE13480268012189030A430260AF
:101440000068084012900F484038426B02210A435E
:101450004263406B0DAA08401290C02013C2109442
:101460000DA909481194FFF763F8002202211B20FF
:10147000FFF77CF91B20FFF76DF914B010BD0000D9
:1014800000380140401002400004005070B503468F
:1014900080339C68202C2CD100290BD0002A09D045
:1014A000012584682D03AC4206D10469002C03D1C8
:1014B000CC0701D0012070BD1C78012C19D001246B
:1014C0001C700023C3660C4B04689C420ED06368FA
:1014D0001B020BD5EFF31083012585F310882568D7
:1014E0000126B6063543256083F3108800F0F2FD2F
:1014F00070BD022070BD00000080004010B5006883
:101500001E49884239D11E4C1E4962782046007817
:10151000542A02D00A54401C28E0032825D10B7815
:1015200018463138052820D24A7810463138042828
:101530001BD2887801463139042916D25900104B44
:1015400052001833C918103BD2188039C98B6180FA
:10155000803AD28B40000833A280C0188038C38BF9
:10156000E380520808A000F0C1FE0020044920706A
:101570000122491C0A48FFF789FF10BD00380140CD
:101580000000002038000020493D256475412C579B
:101590003D25646D732C463D25646D730A00000083
:1015A00058000020FFB5064604468036706883B0B8
:1015B0000D46202860D1002D0CD00598002809D0B8
:1015C0000120A1680003814207D12069002804D1CD
:1015D000E80702D0012007B0F0BD307801284BD0D9
:1015E000012030700020F06021207060FFF754F877
:1015F0000190274640370598B8820598F882012067
:10160000A1680003814202D12069002804D002951C
:1016100000250020307015E000200290F9E700223C
:101620008021204600F0F0FD002818D10298002803
:1016300017D02168007888620298401C0290F88ACE
:10164000401EF882F88A019B002806980090E6D197
:1016500000224021204600F0D7FD002808D00320BA
:10166000B9E728882168C005C00D8862AD1CE6E78F
:10167000202070600020AEE70220ACE77047FEE754
:1016800000B589B024216846FEF77DFD0E490D485E
:1016900008600846FEF742FE002801D0FEF7B2FDC2
:1016A0000020009001900290039002460490694649
:1016B0000548FEF7A9FD002801D0FEF7A3FD09B0FB
:1016C00000BD0000007400404400002070B586B0EA
:1016D00014216846FEF757FD1348426B04210A4364
:1016E0004263426B0A400592416B012421434163EE
:1016F000416B21400591426B02210A434263406BDA
:101700000A4E08408D030590002229463046FEF718
:10171000BDFF002102910391009501946946304676
:10172000FEF706FF06B070BD001002400008005032
:1017300010B5184816490160E121490241600021B5
:101740008160C16001618161C16101620C224162FD
:1017500042618162FFF71EFE002801D0FEF752FDB4
:1017600000210C48FFF77CFC002801D0FEF74AFD61
:1017700000210848FFF750FC002801D0FEF742FD89
:101780000448FFF729FC002801D0FEF73BFD10BDFF
:101790000038014058000020FEE77047704710B540
:1017A000FEF780FF10BD30B593B038216846FEF7D4
:1017B000EAFC002501200E950F9510954002119529
:1017C000FEF7D8FF0224E00103900094402005902A
:1017D00008200A9080030B90079400020C90089454
:1017E000000104950D9009956846FFF7DFF9002880
:1017F00001D072B6FEE707200EA931C102210EA862
:101800001195FFF7CDF8002801D072B6FEE713B0AE
:1018100030BD704700207D21C900401C8842FCD3A8
:10182000704710B500211924240206E02346022245
:10183000521C9A42FCD3491CC9B28142F6D310BD56
:10184000F8B50446416E4034002915D0006881681F
:10185000806809014D0F0A4E400F3746315C083F42
:10186000385CC000FEF742FC6085785D715DC000A9
:10187000FEF73CFC2085F8BD01206085FAE70000FA
:101880008025000810B5018DC90707D001684A6896
:1018900001235B049A43C36A1A434A60018D890796
:1018A00007D501684A6801231B049A43036B1A4356
:1018B0004A60018D490707D501684A6801239B04E6
:1018C0009A43436B1A434A60018D090707D50168A3
:1018D0004A680123DB039A43836B1A434A60018DF4
:1018E000C90607D50268916801231B039943C36B9E
:1018F00019439160018D890607D501688A68012323
:101900005B039A43036C1A438A60018D490612D522
:1019100003685A6801210905446C8A4322435A60CE
:10192000426C8A4207D10268516803235B059943E0
:10193000836C19435160018D090607D501684A6817
:101940000123DB04C06C9A4302434A6010BD0000CF
:10195000FEB50546002680350446EE60FEF79CFE87
:10196000019020680068124F000709D501210097F7
:10197000002249052046019B00F046FC00280DD1BD
:101980002068006840070BD50121009700228905D7
:101990002046019B00F038FC002801D00320FEBD4A
:1019A00020206860A860E6662E700020FEBD000062
:1019B000FFFFFF0110B5806A002201464031CA8353
:1019C000CA82FFF772FB10BD10B5EFF31081012240
:1019D00082F3108802681368FF242134A343136044
:1019E00081F31088EFF31081012282F310880268DE
:1019F00093680D4C2340936081F31088C16E0129D8
:101A00000BD1EFF31081012282F310880268136872
:101A10001024A343136081F31088202288210A50E8
:101A20000021C166016710BDFEFFFFEF70B50146E2
:101A30004031034680330C8C9D680268222D04D00F
:101A4000906908210843906170BD526A856D2240FB
:101A50002A80826D921C8265CA8B521ECA83CA8BF1
:101A6000002AF1D1EFF31082012484F31088046876
:101A70002568FF262136B543256082F31088EFF3F1
:101A80001082012484F310880468A5686D086D0035
:101A9000A56082F3108820229A6000220267C36E3C
:101AA000012B02D0FFF72AFD70BDC266EFF3108252
:101AB000012383F310880468256810239D43256063
:101AC00082F310880268D469E443E40600D4136208
:101AD000898BFFF79FFA70BDF0B505460446403587
:101AE00089B0288C02902168CE69086806908868C1
:101AF00004902046803000908068222805D08A69B2
:101B0000082002438A6109B0F0BD2F8D68E020688B
:101B1000406A029AA16D10400880A06D801CA065EB
:101B2000E88B401EE8832068C669710731D0F10751
:101B300009D00699C90506D5012101620098C0683F
:101B400008430099C860B0070BD50498C00708D0B7
:101B50002168022008620098C068042108430099A7
:101B6000C86070070BD50498C00708D0216804200E
:101B700008620098C068022108430099C860009874
:101B8000C068002805D02046FFF78FFA0099002092
:101B9000C860E88B002823D1EFF31080012181F386
:101BA000108821680A68FF2301339A430A6080F392
:101BB0001088EFF31080012181F3108821688A6872
:101BC000264B1A408A6080F310880098202181609B
:101BD00000202067E16E012928D02046FFF78EFC07
:101BE000002F01D0B00692D4E88B00288BD0298D2D
:101BF000814288D9EFF31080012181F31088216898
:101C00008A6801231B079A438A6080F3108814486E
:101C1000EFF310812067012080F3108820680268AC
:101C200020231A43026081F310886CE7E066EFF32B
:101C30001080012181F310882268136810218B43E2
:101C4000136080F310882068C269D243D20600D4A2
:101C50000162A98B2046FFF7DDF9C1E7FEFFFFEF28
:101C60002D1A000870B501464031034680330C8CB4
:101C70009D680268222D04D0906908210843906174
:101C800070BD526A2240846D2270826D521C826542
:101C9000CA8B521ECA83CA8B002AF1D1EFF310827D
:101CA000012484F3108804682568FF262136B54393
:101CB000256082F31088EFF31082012484F31088EA
:101CC0000468A5686D086D00A56082F31088202265
:101CD0009A6000220267C36E012B02D0FFF70EFC50
:101CE00070BDC266EFF31082012383F3108804688D
:101CF000256810239D43256082F310880268D4690B
:101D0000E443E40600D41362898BFFF783F970BDC6
:101D1000F0B505460446403589B0288C019021680D
:101D2000CE6908680690886804902046803002904A
:101D30008068222805D0886908221043886109B08C
:101D4000F0BD2F8D68E02068406A01990840A16DC0
:101D50000870A06D401CA065E88B401EE8832068D9
:101D6000C669710731D0F10709D00699C90506D5B2
:101D7000012101620298C06808430299C860B00757
:101D80000BD50498C00708D0216802200862029889
:101D9000C068042108430299C86070070BD50498F5
:101DA000C00708D02168042008620298C068022198
:101DB00008430299C8600298C068002805D02046F0
:101DC000FFF773F902990020C860E88B002823D13F
:101DD000EFF31080012181F3108821680A68FF2346
:101DE00001339A430A6080F31088EFF310800121D9
:101DF00081F3108821688A68264B1A408A6080F334
:101E0000108802992020886000202067E16E012957
:101E100028D02046FFF772FB002F01D0B00692D4E5
:101E2000E88B00288BD0298D814288D9EFF3108070
:101E3000012181F3108821688A6801231B079A43D6
:101E40008A6080F3108814482067EFF31080012126
:101E500081F3108821680B68202213430B6080F304
:101E600010886CE7E066EFF31080012181F31088A1
:101E70002268136810218B43136080F31088206858
:101E8000C269D243D20600D40162A98B2046FFF773
:101E9000C1F8C1E7FEFFFFEF651C0008F8B5044676
:101EA000016880682269E5691043626900262A4357
:101EB00010437C4B0A687C4D2A4002430A6020682C
:101EC0004168032212039143E26811434160216893
:101ED000A069994201D0226A10438A68734D2A4052
:101EE00002438A602068C16A626A090909011143D4
:101EF000C1626F4922686F488A420AD140698007EF
:101F0000800F2CD001283DD0022828D0032825D1CD
:101F100022E069498A420AD140690C2108401ED05A
:101F200004281CD008282BD00C2817D114E06349B2
:101F30008A4223D062498A4220D09A420ED1416916
:101F400003208002014019D001208002091A19D013
:101F5000091A15D0814201D1082000E01020012586
:101F60005849594FED039A423FD100280CD002281E
:101F70000DD004280DD0082836D10EE00020EEE761
:101F80000220ECE70420EAE7FEF7B6FD03E00D4689
:101F900003E0FEF7C5FD05007AD0606A4000395ABB
:101FA00028460091FEF7A2F8676879007918814207
:101FB00069D83903814266D3002328461946009A1E
:101FC000FEF7AAF8020E0902030278081143181856
:101FD000002251413A460023FEF79EF803210902F0
:101FE0003A4A411A914251D94DE0E269AA4228D1B8
:101FF000002806D0022807D0042807D0082842D19C
:1020000008E0FEF779FD03E00D4603E0FEF788FDEA
:1020100005003DD0606A4000395A2846FEF766F850
:10202000616840004A088018FEF760F80146284AB7
:102030001039914227D8511C01400007400F084336
:1020400024E0002806D0022807D0042807D008285A
:1020500019D108E0FEF750FD03E00D4603E0FEF75E
:102060005FFD050014D0606A4000395A2846FEF72B
:102070003DF861684A088018FEF738F80146144AAE
:102080001039914201D9012602E080B22168C8606E
:10209000204601214030418501850020206760678E
:1020A0003046F8BD00800040F369FFCFFFF4FF1118
:1020B0000038014040100240004400400048004009
:1020C000004C00400024F40060250008FFFC0F00D5
:1020D000EFFF0000F0B58165014640318A83CA8375
:1020E00000230367012584682D03FF26AC4204D139
:1020F0000469002C13D13F4C0AE07F27002C09D043
:1021000001263607B4420CD10469002C05D03F24C7
:102110000C8407E00469002C01D00F8402E00E84D7
:1021200000E00B8404468034E3602226A660EFF3CF
:102130001086B446012686F310880668B768B6464E
:10214000012637437646B760664686F31088012736
:10215000466E7F07BE4229D1098D914226D88168FB
:10216000A94202D1016900291ED0234901672370C9
:10217000016900290CD0EFF31081012282F310884D
:1021800002681368FF2401342343136081F310882D
:10219000EFF31081012282F3108800688268012326
:1021A0001B071A43826021E01449DFE78168A942D6
:1021B00002D1016900290FD011490167237001691B
:1021C0000029EFF3108109D0012282F31088006802
:1021D0000268FF23213307E00A49EEE7012282F378
:1021E00010880068026820231A43026081F3108877
:1021F0000020F0BDFF010000111D0008D91A0008E1
:10220000651C00082D1A0008FFB581B00546174669
:10221000044680350A9E54E0701C52D0FEF73CFA0A
:102220000499401AB0422FD8002E2DD020680168A2
:10223000490746D5C069C043000542D40120216842
:10224000C0020862EFF31080012181F31088216839
:102250000B68FF22A13293430B6080F31088EFF3E9
:102260001080012181F3108821688A685208520089
:102270008A6080F3108820206860A860E8600020F1
:102280002870032005B0F0BDEFF31080012181F329
:10229000108821680A68FF23A1339A430A6080F3FB
:1022A0001088EFF31080012181F3108821688A687B
:1022B000520852008A6080F3108820206860A8606D
:1022C000DDE72068C1690298884304D00020B84245
:1022D000A2D00020D6E70120F9E7000010B502489F
:1022E000FEF7E4FE10BD0000580000200FB410B54A
:1022F00003A9044B044A029800F03AF810BC08BC49
:1023000004B01847C1240008340000208307FF22CE
:10231000DB0E9A408907090E9940002808DB8308E4
:1023200009489B001B1818689043084318607047C1
:102330000007000F0838830804489B001B18D86961
:1023400090430843D861704700E400E000ED00E0EE
:1023500002E008C8121F08C1002AFAD1704770476E
:10236000002001E001C1121F002AFBD170470000CC
:10237000FFB58DB00446002506E025280AD0109A46
:102380000F999047641C6D1C20780028F5D12846D1
:1023900011B0F0BD00270121484A009700E0074333
:1023A000641C23780846203B98401042F7D12078DF
:1023B0002E2817D1042007436078641C2A280CD1EA
:1023C0000E98641C02C800910E900BE000990A223E
:1023D000514330394018641C009020780146303950
:1023E0000929F3D920780028D1D0642808D0692899
:1023F00006D075281ED0109A0F9990476D1C5BE08F
:102400000A200E99019001C90E91002802DA40427B
:102410002D2102E0390504D52B216A4611720121D4
:1024200003E0F90704D02021F7E70BAE0B910DE094
:102430000021FAE70A200E99019001C90E91F7E7F1
:102440000199FDF753FE3031761E31700028F7D127
:1024500003A8801B20300190780701D5009801E087
:10246000012000900199884201DD401A00E000201F
:102470000027009006E002A8109AC05D0F999047CF
:102480006D1C7F1C0B988742F5DB04E0109A30200E
:102490000F9990476D1C0099481E00900029F5DCAB
:1024A00005E03078109A761C0F9990476D1C0199C1
:1024B000481E01900029F4DC641C65E7092801002E
:1024C00013B5044B012269460348FFF76BF80098E7
:1024D0001CBD0000FFFF000058000020FEF7EAF8D6
:1024E000FFF761F9FFF7F2F8FFF722F9FFF7C8F8F5
:1024F000012217491748FEF7C9FF0A20FEF706F820
:1025000000240126144DF603012231462846FEF729
:10251000BDF80120FFF785F9002231462846FEF775
:10252000B5F8FFF777F9641CE4B2072CECD301226D
:1025300031462846FEF7AAF800231A4619460748EE
:10254000FDF72EFF00210548FDF738FFFEE70000EC
:102550000100002058000020000800504400002026
:10256000010002000400060008000A000C00100030
:10257000200040008000000101010103070100006C
:10258000080402040801010100000000000000002E
:10259000000000000000000000000000000000003B
:1025A0000000000000000000010000000200000028
:1025B0000300000004000000060000000700000007
:1025C00008000000090000000000000000000000FA
:1025D00000000000000000000100000002000000F8
:1025E000030000000400000008260008000000208E
:1025F0003800000050230008402600083800002062
:10260000B00400006023000800000000000000008B
:102610000200040006000800D007E803F4014D01A1
:10262000E803D606C409B20CA00F000001000000A8
:1026300004000000000000000024F400000000007E
:04000005080000BD32
:00000001FF
