:020000040002F8
:10600000385F0020C5630200CD630200CF63020049
:10601000D1630200D3630200D563020000000000D8
:10602000000000000000000000000000D763020034
:10603000D963020000000000DB630200DD630200A0
:1060400031660200DF630200956B0200DF6302002D
:10605000DF630200DF630200756502009D660200D7
:10606000DF630200DF630200DF630200DF63020020
:10607000DF630200DF630200DF630200DF63020010
:10608000DF63020085660200DF630200DF63020057
:10609000DF630200DF630200F5680200DF630200D5
:1060A000DF630200DF630200DF630200DF630200E0
:1060B000DF630200DF630200000000000000000058
:1060C000DF630200DF630200DF630200DF630200C0
:1060D000DF630200DF630200DF63020000000000F4
:1060E00000000000000000000000000000000000B0
:1060F00000000000000000000000000000000000A0
:10610000000000000000000000000000000000008F
:10611000000000000000000000000000000000007F
:10612000000000000000000000000000000000006F
:10613000000000000000000000000000000000005F
:10614000000000000000000000000000000000004F
:10615000000000000000000000000000000000003F
:10616000000000000000000000000000000000002F
:10617000000000000000000000000000000000001F
:10618000000000000000000000000000000000000F
:1061900000000000000000000000000000000000FF
:1061A00000000000000000000000000000000000EF
:1061B00000000000000000000000000000000000DF
:1061C00000000000000000000000000000000000CF
:1061D00000000000000000000000000000000000BF
:1061E00000000000000000000000000000000000AF
:1061F000000000000000000000000000000000009F
:10620000DFF810D000F078F90048004715A402002C
:10621000AFF30080385F002030B450E8012F93B214
:10622000C48923448489A34228BF1B1B0489A34239
:1062300002BFBFF32F8F002007E0C3EA020340E84C
:106240000134002CE9D14FF001000A6030BC7047E6
:1062500050E8012FC2EA024240E801210029F7D1AB
:10626000704730B450E8022F1FFAA2F3C488A3424B
:1062700002BFBFF32F8F00200DE0C489234484891F
:10628000A34228BF1B1BC2EA034340E80234002C90
:10629000E8D14FF001000A6030BC704750E8022F8F
:1062A000C2EA224240E802210029F7D170470346A2
:1062B00053E8022FD988B2EB324F4FF0000017BFDE
:1062C00092B241EA014142EA014104E05A68B2EB6C
:1062D000324F08BF012043E80212002AE8D170477C
:1062E00030B4044654E8000F0D4644E80053002B38
:1062F000F8D1156030BC704730B4044654E8000F44
:1063000040EA010544E80053002BF7D1156030BC8A
:10631000704730B4044654E8000F00EA010544E831
:106320000053002BF7D1156030BC704730B40446E1
:1063300054E8000F80EA010544E80053002BF7D130
:10634000156030BC704730B4044654E8000F00EBD1
:10635000010544E80053002BF7D1156030BC7047AD
:1063600030B4044654E8000FA0EB010544E80053A4
:10637000002BF7D1156030BC704770B404464FF065
:10638000000054E8006F0D68AE4207BF44E80023E8
:10639000012044E800630E60002B1CBF0020F0E7E2
:1063A00070BC704730B4044654E8000F88422CBFDC
:1063B000451A054644E80053002BF5D1156030BC62
:1063C000704700000648804706480047FEE7FEE7A2
:1063D000FEE7FEE7FEE7FEE7FEE7FEE7FEE7FEE795
:1063E0000D690200016202002DE9F05F0546002000
:1063F00092469B4688460646814640241BE0284636
:1064000041464746224600F067F853465A46C01AAE
:10641000914110D311461846224600F016F82D1A65
:1064200067EB01084F4622460120002100F00DF8DD
:1064300017EB00094E41201EA4F10104DFDC4846A1
:1064400031462A464346BDE8F09F202A04DB203A25
:1064500000FA02F1002070479140C2F1200320FAB7
:1064600003F3194390407047004870470CFA02004C
:1064700040EA01039B0703D009E008C9121F08C0C6
:10648000042AFAD203E011F8013B00F8013B521E46
:10649000F9D27047D2B201E000F8012B491EFBD2BD
:1064A00070470022F6E710B513460A46044619461F
:1064B000FFF7F0FF204610BD421C10F8011B002919
:1064C000FBD1801A7047034611F8012B00F8012B0D
:1064D000002AF9D118467047202A04DB203A21FA15
:1064E00002F00021704721FA02F3D040C2F12002ED
:1064F0009140084319467047064C074D06E0E06896
:1065000040F0010394E8070098471034AC42F6D3FA
:10651000FFF77AFE90010300B001030070B58C18FC
:1065200010F8015B15F0070301D110F8013B2A11A7
:1065300006D110F8012B03E010F8016B01F8016B94
:106540005B1EF9D12B0705D40023521E0DD401F890
:10655000013BFAE710F8013BCB1A921C03E013F859
:10656000015B01F8015B521EF9D5A142D8D300208E
:1065700070BD00002DE9F84F0026002000904FF478
:1065800080770125002410E0384604F0F1FF40B187
:1065900000BF25480068284018B1384604F0DAFFEB
:1065A0002E436D00381D87B2641C082CECD34FF4C9
:1065B000BE7004F0DDFF50B14FF4BE7004F0CAFFAE
:1065C00046F000466A460121002004F053FFF0B275
:1065D00010B3012500241DE005EA0600C0B100BF8C
:1065E000124850F82400C0F30420814600BF0F4831
:1065F00050F82400C0F301408246204602F062FDBC
:106600008046B8F1000F02D051464846C04700BF4F
:106610006D00641C082CDFD306F0004010B1684602
:1066200007F0F6FABDE8F88F0463004010650040FB
:1066300010B54FF4807004F082FC80B14FF480708C
:1066400004F086FC012004F08DFC0D48407930B93F
:1066500001200B49487108460168002088474FF423
:10666000827004F06CFC50B14FF4827004F070FC46
:10667000022004F077FC024801680120884710BD21
:10668000182C002010B5034A1068034A1168884787
:1066900010BD0000A42C0020A02C0020FEB54FF45B
:1066A000827005F073FC002837D04FF4827005F03B
:1066B00077FC6C4890F82E0018B16A4890F82F00CB
:1066C00058B300208DF80000664840680190654886
:1066D0000189ADF80810C06818B900206149087434
:1066E00012E06048008B5F4948830846C0684860F4
:1066F0000846008B08810020C860084690F82E00EC
:1067000010B9002005F064FC5648016868468847C7
:106710000020544981F82F0000BF524890F82E0005
:10672000002852D04FF4807005F030FC00284CD087
:106730004FF4807005F034FC4A48408B494991F889
:106740002D10884216DD4748408B464991F82D10A0
:10675000401A444948830A4612890B465B8BD21A79
:106760000B465B6803EB42000A4692F82D1005F0D9
:10677000F9FB23E03B48408B3A4991F82D108842C1
:106780000FD13848C06860B10120364981F82F0028
:10679000002048830A4692F82D10D06805F0E2FBED
:1067A0000CE03048408B2F4991F82D10884205D1DC
:1067B00001202C4981F82F00002048834FF482707B
:1067C00005F0EEFB042005F003FC4FF4887005F0A3
:1067D000DDFB70B14FF4887005F0E2FB0020214929
:1067E000087402208DF80000084601686846884752
:1067F00000BF4FF48A7005F0C9FB38B14FF48A70BE
:1068000005F0CEFB0020174908742AE015484569B9
:1068100024E0B5FA85F64FF00040F0408543B00023
:1068200000F58C74204605F0B1FBB8B1204605F0A8
:10683000B7FB01208DF80000A4F58C70C0F3C700F1
:106840008DF80400A4F58C70012121EA90018DF8E7
:106850000510044801686846884700BF002DD8D15C
:1068600000BFFEBD7834002010B500F09BF910BDCC
:106870002DE9F047074688461646C24607EB470112
:106880001B4800EBC109D9F8140020B1012811D030
:10689000022826D11EE0484600F0BCF90546B54264
:1068A00001D2002405E0344632465146484600F005
:1068B000F8F918E0484600F0ADF90546B54201D2B6
:1068C000284600E03046044622465146484600F03D
:1068D000E8F908E032465146484600F0A9F9044676
:1068E00001E0002400BF00BF2046BDE8F0870000A3
:1068F000C43C002010B505F06DFD10BD01480249F3
:10690000086070470090D003182D002010B503F0E8
:1069100013FF28B190480088C0F304208F49086015
:1069200003F066FF10B18E488E49486703F0C2FF3E
:1069300030B18948E0380068C0F342308A490860C5
:1069400003F0E6FF28B18948006820F0807087498D
:10695000086003F0FFFF48B10020854908604FF050
:106960008041C1F810018049091F086004F020F837
:1069700018B103207C496431086004F03BF868B129
:1069800005207C49086001207A49783108600020A0
:106990007849083108603F20091F086004F04CF86E
:1069A000002855D06C48E0300068734908606A4898
:1069B000E4300068091D08606748E8300068091D78
:1069C00008606548EC300068091D08606248F030D6
:1069D0000068091D08606048F4300068091D0860FF
:1069E0005D48F83000686449203108605A48FC303E
:1069F0000068091D086061480068091D08605F485B
:106A0000001D0068091D08605C4808300068091D09
:106A100008605A480C300068091D0860574810305B
:106A20000068554940310860544814300068091D19
:106A30000860524818300068091D08604F481C3033
:106A40000068091D08604D4820300068091D086075
:106A500003F044FE30B14048CC38006800F04F00ED
:106A60004749086003F096FE40B14648006800F0D0
:106A7000010018B16FF001004249086003F0DAFE2E
:106A800028B14148006840F480603F4908603748B9
:106A90007438006840F4700034497439086000BFED
:106AA00000BF00BFBFF34F8F00BF00BF00BF00BFDC
:106AB00000BF00BFBFF36F8F00BF00BF00BF00BFAC
:106AC00003F0D8FE20B13148006827491C31086026
:106AD00000BF2E480838006800F0004028B92B4855
:106AE000001F006800F0004090B3012006F036FC63
:106AF000152026490839086006F03AFC15214FF0A8
:106B00001020C0F8041206F033FC002006F026FC2A
:106B100000BF00BF00BF00BF00BFBFF34F8F00BF6B
:106B200000BF00BF1148F038006800F4E060184969
:106B30000843001D0D49F039086000BF00BF00BFC9
:106B4000BFF34F8F00BF00BF00BF00BF00BFFDE716
:106B5000FFE7FFF7D3FE10BD2403001040350140CE
:106B60000DF0ADBA00C007403C050040FCED00E070
:106B70000C0100401056004020C5004024040010C5
:106B8000E40E0040000400403C17004008120010D2
:106B90000000FA0510B502490868804710BD0000E2
:106BA000202C002010B5124C02202061606111A041
:106BB000A0611349E1614FF4007121620021A162DB
:106BC0006162E1620BA0A0640E49E16410212165BD
:106BD0000021A1656165E1650BA1E01DFFF773FC74
:106BE0000AA12046FFF76FFC2020A07110BD000015
:106BF000AC3C00205465726D696E616C0000000051
:106C0000243D0020243F0020525454005345474760
:106C10004552000010B501460A69CB689A4204D873
:106C20008C68641EE41AA01801E0D41A601E10BD1E
:106C30002DE9F0470446894617464FF0000AE568FB
:106C400000BFD4F81080A84503D9A8EB0500461E64
:106C500004E0A5EB0800401CA1680E1AA068401BC8
:106C6000B04201D9304601E0A068401B0646BE4252
:106C700001D2304600E0384606466168481932467F
:106C80004946FFF7F5FBB244B144BF1B3544A06849
:106C9000A84200D10025E560002FD2D15046BDE8C2
:106CA000F0872DE9F047044689461546E668A06856
:106CB000871BAF4208D9616888192A464946FFF701
:106CC000D7FB7019E06010E0B84661688819424649
:106CD0004946FFF7CDFBA5EB070809EB0701424644
:106CE0006068FFF7C5FBC4F80C80BDE8F08702E0E0
:106CF00008C8121F08C1002AFAD170477047002047
:106D000001E001C1121F002AFBD170470146202972
:106D100008DA012088400A4A104008B10120704773
:106D20000020FCE7402909DAA1F12000012202FA43
:106D300000F008B10120F2E70020F0E70120EEE7C3
:106D4000FC06FFBD00BFEFF31081084672B6704726
:106D5000FEB50025204E05B9204D3146284605F0E8
:106D600087FF044600BF00BF254625B100BF284667
:106D700000F0CCF900BF00BF194A07CA8DE8070030
:106D80006946002005F008FF044600BF254625B1EE
:106D900000BF284600F0BAF900BF00BF012111482A
:106DA00005F09AFE044600BF254625B100BF2846DF
:106DB00000F0ACF900BF00BF01210A48801C05F0BB
:106DC0008BFE044600BF254625B100BF284600F0D3
:106DD0009DF900BF00BFFEBDE1E00200D8F5020052
:106DE000DCF50200282B00200246002104E0505C64
:106DF00008B101207047491C0629F8D30020F9E7A3
:106E000070B504460D4604F22740FFF7EDFF064635
:106E1000012D06D0022D0DD0032D11D0042D19D136
:106E200013E0A07928B194F8240010B90EB1012024
:106E300070BD00BFE07910B10EB10220F8E700BFCD
:106E4000207A08B10320F3E700BF607A08B104207C
:106E5000EEE700BF0020EBE70146481C052290FB4F
:106E6000F2F302FB1300C0B27047014691F82420F0
:106E7000012A01D1EE2000E01F20704710B5012249
:106E80000221002001F0D0FD044600BF1CB1072CF8
:106E900001D0204610BD00BF07220221012001F0D1
:106EA000C3FD044600BF1CB1072C01D02046F1E70A
:106EB00000BF0A220021084601F0B6FD044600BFCB
:106EC0001CB1072C01D02046E4E700BF0020E1E719
:106ED00030B5ABB0AC216846FFF7E3FA02208DF87D
:106EE000000000208DF8020006208DF8030001212B
:106EF000ADF84C100F49149101218DF87C10402100
:106F00002291002123910C48299069460B4800F0FA
:106F10008EFD044600BF254625B100BF284600F07F
:106F2000F5F800BF00BF0121044800F07DFD2BB043
:106F300030BD0000242B002081D30200502D002002
:106F400070B50321064800F039FE044600BF25460F
:106F500025B100BF284600F0D9F800BF00BF70BDC2
:106F6000502D002010B50446022001F005FC10BD94
:106F700010B5002407E00749096811F83400012121
:106F800005F0D2FB641C044800788442F3D300204F
:106F900010BD0000282C00202C2C00202DE9F843E7
:106FA00006460D4617460A2F02D20720BDE8F88391
:106FB00005F0FEFC38B905F091FC044600BF204600
:106FC00000B1F3E700BF184806601848057018487C
:106FD000076010211748FFF764FA0021164A116074
:106FE000516015E006EBC50814480068009098F859
:106FF00002008DF8010098F80000114A694605F07A
:10700000E9FB044600BF204600B1CFE700BF00BF48
:10701000281EA5F10101CDB2E4D10A4A00210A4897
:1070200000F0BCF8C2E70000282C00202C2C002027
:10703000302C002044360020582C002000F702009D
:10704000319F020019980200FCF6020010B572B6DA
:1070500000BF04F0DBFD00BF00BF04F085FB00288B
:10706000FBD100BF00BF1E491E4A891AC908012270
:1070700042EA01401CA104F005FD00BF1D48006864
:1070800000F0010000B100BE00BF1549154A891A81
:10709000C908022242EA014017A104F0F3FC00BF34
:1070A00000BF00BF00BF00BFBFF34F8F00BF00BFD6
:1070B00000BF1048E438006800F4E060124908435B
:1070C000001D0C49E439086000BF00BF00BFBFF3DA
:1070D0004F8F00BF00BF00BF00BF00BFFDE7000033
:1070E00030020300C0010300466174616C206572C8
:1070F000726F7200F0ED00E053797374656D207269
:1071000065736574000000000000FA053EB5044692
:10711000002000900190029002946A46002144F2FF
:107120000100FFF793FF3EBD70B504460D462046B3
:1071300002F0EAFD28B12946204602F0D9FD0020E0
:1071400070BD0520FCE7034609B90E20704712B157
:10715000501E104008B10920F8E71960501E9880B1
:1071600000209860D86000BFF0E770B504460D4677
:10717000204602F0C9FDA188884205D8294620464C
:1071800002F0D5FD002070BD0420FCE710B50248D8
:1071900002F0C4FB10BD0000602C002030B5034697
:1071A0000C460AB9072030BD19684FF0FF358D60D5
:1071B000CD604A61012C01D1012000E0002008616E
:1071C0000020F0E738B513480068009008235822E3
:1071D00011491248006803F05DFC04460CB12046DA
:1071E00038BD0F4A69460F4802F09EFB04460CB1B9
:1071F0002046F5E701210B4802F03CFC01230A4A36
:107200001946084802F05CFB012008490870204636
:10721000E6E7000014F702005436002004F70200ED
:10722000C5DE0200602C0020FFFF7F006C2C0020D8
:107230002DE9F84306460D4690463446002000905E
:10724000684600F015F94FF0FF33D4E902105940B9
:107250005840014308D102F04DFE401941F10001B0
:10726000C4E90201012700E000279DF8000000F0BA
:1072700005F917B90020BDE8F883C4F81880206923
:1072800000B125612146002007F076FCF3E7F8B550
:107290000446254600200090684600F0E9F84FF0CB
:1072A000FF33D5E9021059405840014301D100266F
:1072B00004E04FF0FF31A960E96001269DF800006D
:1072C00000F0DCF80EB90020F8BD2946012007F0D7
:1072D00053FCF9E72DE9F04104460F4807782146B1
:1072E0000E48FFF721FF804697B100200A49087039
:1072F00001220B490B4803F0C3FE054600BF2E4692
:1073000026B100BF3046FFF701FF00BF00BF00BF3E
:107310004046BDE8F08100009E2C0020BC360020D5
:107320009D2C0020842C00202DE9F04188B00446DB
:107330000E46174698462B4807601EB9072008B02E
:10734000BDE8F081B08882B227483168FFF7FBFEC4
:10735000054600BF284600B1F1E700BFB08982B200
:107360002248B168FFF7EFFE054600BF284600B18E
:10737000E5E700BF20221E496846FFF779F86069FB
:107380000690207C08B1012000E000208DF8140058
:107390008DF81C80607C08B10E2000E000208DF884
:1073A0001500E0680290A068039020680190606872
:1073B0000090104A6946104803F01CFE054600BFC5
:1073C000284600B1BBE700BF00200C4908702068C8
:1073D000401C28B101220A49074803F051FEAEE7DC
:1073E0000020ACE7982C0020BC360020CC360020D2
:1073F00018F70200BDED0200842C00209E2C002016
:107400009D2C00202DE9F041054629461448FFF740
:10741000ACFE064606BB134C002720781249085CD8
:1074200020B1201D05F036FF074608E020780E4900
:10743000085C20B904F10C0005F0D4FD074600BF3C
:1074400057B90A490648FFF76FFE28B901220749D4
:10745000044803F037FE06463046BDE8F0810000E0
:10746000CC360020842C0020142C00209C2C0020E2
:1074700010B50446204606F0CBFE10BD70B504469C
:1074800025460E488068B0B1ADB9FFF75BFC0646F3
:107490000A4800680A490860084840684FF0E0213F
:1074A000C1F804010020054988601EB900BF62B61A
:1074B00000BF00BF00BF00BF70BD0000DC36002071
:1074C00000E100E0F8B505460C4617462088001D8F
:1074D000B84201D90C20F8BD684679DF064600BFE6
:1074E000304600B1F7E700BF0320218868542088A8
:1074F000401C20801920218868542088401C20804E
:1075000020884119BDF8000007F078FE2188084462
:1075100020800020DFE770B505460C462068401C3F
:1075200028B1206803F0DDFF206803F072FF606877
:10753000401C18B10021606803F051FF2868A16960
:10754000C0F8241500BF617D227D286841EA02034E
:10755000C0F86C3500BFD4E90012286805F04DF87A
:10756000207D012814D1A068401C18B10021A0681A
:1075700003F035FFE068401C28B1E06803F0B1FF7C
:10758000E06803F046FFD4E90221286805F01EF800
:1075900070BD70B505460C462068401C28B12068B7
:1075A00003F0AAFF206803F040FF6068401C18B198
:1075B0000021606803F020FF2868A169C0F8241545
:1075C00000BF617D227D286841EA0203C0F86C3566
:1075D00000BFD4E90012286805F047F8207D012893
:1075E00014D1A068401C18B10021A06803F004FF6A
:1075F000E068401C28B1E06803F07EFFE06803F01B
:1076000014FFD4E90221286805F010F870BD0000CD
:10761000002114E00C48D0F81024012308E000BF3A
:10762000D0680079884201D1002303E0D068026865
:10763000002AF4D100BF0BB108467047491C0A2943
:10764000E8DB4FF0FF30F8E78C380020F0B58FB062
:1076500004460D46287B0190202107A8FEF721FF54
:1076600042F61920ADF81C000120ADF82000ADF85D
:10767000220001A80990617C9DF8290061F30410A3
:107680008DF829009DF8290020F00200801C8DF85B
:107690002900A87B8DF82F00687B8DF82D00A0882D
:1076A000A21D07A901F0A4FD064616B130460FB091
:1076B000F0BDA86800B36846A96800F0D1FF07468E
:1076C000142102A8FEF7EDFE42F60810ADF80800FE
:1076D000E87B8DF80E00ADF81270BDF81200ADF821
:1076E0001600CDF818D0E08804F10E0202A902F0CD
:1076F00033F806463046DAE70020E08100BFD6E7DF
:10770000014640F6B832914201DB642045E040F684
:10771000543291420BDD40F6B832521A3A235A43A2
:10772000642392FBF3F2C2F16402D0B235E040F67A
:10773000B42291420CDD40F65432521A02EB42025E
:10774000D200A02392FBF3F2C2F12A02D0B224E0CD
:1077500040F6881291420DDD40F6B422521A02EB37
:10776000420292004FF4967392FBF3F2C2F11202BE
:10777000D0B212E040F6340291420DDD40F688129C
:10778000521A02EB420252004FF4AA7392FBF3F238
:10779000C2F10602D0B200E00020704770B5064684
:1077A00005F0E2FA044600BF254625B100BF284691
:1077B000FFF7ACFC00BF00BF70BD70B504460D46BE
:1077C00021462846AEDF0646304670BD2DE9F04121
:1077D00004460F46154615B90E20BDE8F08100207D
:1077E000286000BF0CB90E20F7E700BF00BF20687B
:1077F00008B90E20F1E700BF00BFE088C11700EB19
:1078000091718910A0EB810109B10720E5E700BF64
:10781000384600F089FBC6B2142E01D10520DCE702
:107820002079B04201DC0420D7E7E188206806FB1C
:10783000010028600020D0E72DE9FC41054688467C
:107840001646002437880020308095F82D0058B166
:107850003A463146404600F095FB044600BF2046BC
:1078600008B1BDE8FC8100BFA87850B13A46314666
:107870004046FFF727FE044600BF204600B1F0E770
:1078800000BFE87860B1E97848B23B4632464146ED
:1078900002F065FA044600BF204600B1E1E700BFF0
:1078A000686868B1696891F900003B463246414614
:1078B00007F003FA044600BF204600B1D1E700BF3D
:1078C000288900280EDD43460622022105F1080022
:1078D000CDE9006707F0BDFD044600BF204600B1BA
:1078E000BFE700BF288A00280EDD43460722032198
:1078F00005F11000CDE9006707F0ABFD044600BFBD
:10790000204600B1ADE700BF288B00280EDD4346BE
:107910001522142105F11800CDE9006707F099FD43
:10792000044600BF204600B19BE700BF286A58B15B
:107930003B4632464146286A01F0DCFD044600BF62
:10794000204600B18DE700BF686A58B13B46324619
:107950004146686A02F0A2FD044600BF204600B11D
:107960007FE700BF95F82C0000280BDD3B46324630
:107970004146284606F060FD044600BF204600B19F
:107980006FE700BF287858B13B463246414628464B
:1079900002F040FE044600BF204600B161E700BF90
:1079A00020465EE7F8B504460E46154600200090D6
:1079B0002B466A463146204600F008F807460FB9C4
:1079C0000020F8BDBDF800002044FAE7F0B50446F9
:1079D0000D461E4604B10AB90020F0BD002103E0A7
:1079E000605C401C084481B2481CA84206DA10883A
:1079F0008842F5DC481C205CB042F1D1A94201DB91
:107A00000020EAE7881C87B2605C10B1605C401E11
:107A100000E0002083B213B1F818A84201DD002075
:107A2000DBE717801846D8E780F83010704770B54C
:107A300004460D4605B10CB90E2070BD05F1780065
:107A400001F0F9FC08B90720F7E70020A0702C220C
:107A500005F17801201DFEF70BFD002084F83000B1
:107A6000D5F8A4006063D5F8A800A0634FF6FF70B6
:107A7000A4F8240404F58260C4F82004002140F234
:107A80002C40C4F82614A4F82A140155207810B903
:107A9000FF2084F8540004F15500C4F81004204677
:107AA000FFF7E3F940F21441085304F2144204F1E1
:107AB00055012846FFF7C0FE064600BF304600B11C
:107AC000BBE700BF04F231204FF483610851204628
:107AD000FFF7CBF9A4F81C044FF48360015904F2BA
:107AE0001C4205F13C00FFF7A7FE064600BF3046EA
:107AF00000B1A2E700BF012151200155208B81B2C6
:107B000048200153012084F83C00002121645020CA
:107B100001556169616404F13C02002104F15400E3
:107B200072DF064600BF304600B186E700BF012085
:107B30002070304681E770B504460D462E462088F9
:107B4000102804D0112807D026280FD109E021469B
:107B5000304605F019FD0AE02146304605F0D9FD12
:107B600005E02146304605F0F4FE00E000BF00BF0E
:107B700070BD70B5044694F8540074DF012084F899
:107B80002E04002084F830040021502001550621E5
:107B9000204602F0FFF8054600BF284600B170BD40
:107BA00000BFA178204600F009F8054625B1A06B7A
:107BB00010B12846A16B88470020F0E770B5044655
:107BC0000E46207808B9082070BDA670002140F24A
:107BD0002C40C4F82614A4F82A140155A07910B139
:107BE000A078012809D0E07910B1A078012804D04C
:107BF000E07970B1A07802280BD1606B30B1012020
:107C000084F82D040820616B884702E0002084F886
:107C10002D0431462046FFF7F3F8A070606BA0B149
:107C2000A078032802D0A07804280ED1607960B132
:107C300094F82E0448B9002084F83004012084F818
:107C40002F040720616B884702E0002084F82F048E
:107C5000182104F13C00FEF724FC012084F83C00CC
:107C600004F12C0005F043FF20B194F82C105120B2
:107C7000015502E001215120015594F8240060B122
:107C800004F1280005F033FF20B194F828105220A9
:107C9000015502E0012152200155002150200155DB
:107CA000A078052824D2DFE800F01F030A1118008D
:107CB00004F13C01204606F055FC054619E004F1AC
:107CC0003C01204606F036FC054612E004F13C017A
:107CD000204606F059FC05460BE004F13C01204625
:107CE00006F080FC054604E0002084F8310000E046
:107CF00000BF00BFA07898B104F13C0204F1540029
:107D0000D4F8201472DF05460DB128465CE794F8DC
:107D1000301094F8540073DF05460DB1284653E740
:107D2000606B18B194F83100616B884700204BE715
:107D3000F7B592B00446174614B90E2015B0F0BD41
:107D40000026207C9DF84C10884258D000201090CE
:107D500011900120ADF840000020ADF8420013A8BA
:107D60001190E18810AA4FF6FF70ACDF06461EB9ED
:107D70009DF84C00207401E03046DFE7607C00286D
:107D80003CD000200C900D900E900F90E088ADF844
:107D9000300001208DF83200BDF84200ADF834000B
:107DA00010A80E9011980F904FF6FE7087421FD1C9
:107DB00001A800F0AFF8002516E002A931F815007F
:107DC00000F0BCF802280ED13EB902A830F8151018
:107DD0000CA8FFF7F2FC064605E002A830F81510E3
:107DE0000CA8FFF7EAFC6D1C0198A842E5D804E056
:107DF00039460CA8FFF7E1FC064600E008263046AD
:107E00009CE7F8B504460D4604B10DB90E20F8BD47
:107E10002868206028796074FF20207400BF01204A
:107E20008DF8020041F60F00ADF8000000BF221DE2
:107E300069460120A8DF064600BF304600B1E6E7EC
:107E400000BF29462046FFF701FC06463046DEE724
:107E500070B504460D4605B104B970BD2E462088A4
:107E6000502804D12146304605F01AFE00E000BF3C
:107E700000BF00BFF1E700002DE9F041044600BF5C
:107E800014B90E20BDE8F08100BF1C2221461C4819
:107E9000FEF7EEFA1B481A490860206860B12068B6
:107EA0007ADF05460DB12846ECE7164821680A68D6
:107EB00002604968416005E012487BDF05460DB16C
:107EC0002846DFE7002617E006EB86000E4901EBA7
:107ED000800700BF4FF6FF70388000BF0B4800EBF3
:107EE000461078600A4A0021381DFFF757F9054609
:107EF0000DB10320C6E7761C002EE5D00020C1E7B7
:107F0000EC340020B82B0020D8340020B8340020F6
:107F1000CDF2020010B5044602484168204601F047
:107F20009EFA10BD0835002010B50446204600F02A
:107F30001BF808B1204610BD1420FCE770B50446BC
:107F40000025204600F010F850B12146054802F007
:107F5000FCFD06460EB1022000E00120054600BFF0
:107F6000284670BD1035002010B50446142C01DBE6
:107F7000002010BD2146024802F0E7FDF9E70000AD
:107F80000C3500202DE9FC4105460C46174620889B
:107F90000930B84202D90C20BDE8FC8168466DDF8B
:107FA000064600BF304600B1F6E700BF0820218832
:107FB00068542088401C20801B2021886854208819
:107FC000401C208020882844DDF801100160BDF8A5
:107FD000051081802088801D20809DF800004008C9
:107FE00018B900202188685402E0012021886854D3
:107FF0002088401C20800020CEE700007FB504468A
:1080000000BF01208DF80E0041F60A00ADF80C000B
:1080100000BF564A03A90120A8DF054615B128462E
:1080200004B070BD208800280DDD5148009094F800
:108030003C30228842F62920616801F091F805461B
:108040000DB12846ECE7208900280DDD4948009055
:1080500094F83C30228942F62420E16801F080F84F
:1080600005460DB12846DBE7208A00280DDD424891
:10807000009094F83C30228A42F62520616901F094
:108080006FF805460DB12846CAE7208B00280DDDA4
:108090003A48009094F83C30228B42F62720E16960
:1080A00001F05EF805460DB12846B9E7208C00289E
:1080B0000DDD3348009094F83C30228C42F62620A7
:1080C000616A01F04DF805460DB12846A8E7208DFC
:1080D00000280DDD2B48009094F83C30228D42F6AC
:1080E0002820E16A01F03CF805460DB1284697E7E3
:1080F000206B90B101A8216B06F04CFC2248009047
:1081000094F83C30082201A942F6232001F028F817
:1081100005460DB1284683E700BF606B70B11B4870
:10812000009094F83C30606B0279016842F62A2096
:1081300001F016F805460DB1284671E7A06B90B125
:1081400001A8A16B05F01EFD1148009094F83C3089
:10815000072201A942F6502001F002F805460DB1B0
:1081600028465DE700BF00205AE70000C02B002032
:10817000C22B0020CA2B0020D22B0020DA2B00209B
:10818000E22B0020EA2B0020F22B0020FA2B00200B
:10819000022C0020F8B505460F462888212847D034
:1081A00006DC10280BD0112833D0132872D14FE0F1
:1081B0003B2871D052285CD05628F7D17AE0464946
:1081C000464A891AC908032242EA014044A103F041
:1081D00059FC072000F056FC044600BF264626B195
:1081E00000BF3046FEF792FF00BF00BFA8883F499E
:1081F0000880084601883E4802F03AFE044600BF67
:10820000264626B100BF3046FEF780FF00BF00BF04
:108210005FE03149314A891AC908032242EA014024
:1082200034A103F02FFC4FF6FF703049088050E076
:1082300000200090A88869468FDF044600BF2646CC
:1082400026B100BF3046FEF761FF00BF00BF40E02F
:1082500000231A468521254800887FDF044600BF99
:10826000264626B100BF3046FEF750FF00BF00BFD4
:108270002FE000231A4619461C480088B1DF044647
:1082800000BF264626B100BF3046FEF73FFF00BFC5
:1082900000BF1EE01CE0FFE7A888132176DF04463C
:1082A00000BF264626B100BF3046FEF72FFF00BFB5
:1082B00000BF0EE0A888132176DF044600BF2646E3
:1082C00026B100BF3046FEF721FF00BF00BF00E02F
:1082D00000BF00BFF8BD000030020300C001030072
:1082E000436F6E6E6563746564000000202B002090
:1082F000442D0020446973636F6E6E65637465641A
:108300000000000070B505460E462888102802D0EF
:1083100011282CD115E01748006860B901F07EF9EA
:10832000044600BF34B11448006818B12046124911
:108330000968884700BF0F480068401C0D49086065
:1083400016E00C480068401E0A49086008460068AC
:1083500060B9FEF793FD044600BF34B106480068DB
:1083600018B1204604490968884700BF00E000BFF3
:1083700000BF70BDB42B0020B02B002070B50446A8
:108380000D462088102806D0112808D012280ED0BB
:10839000502810D107E0204605F084F80CE0204674
:1083A00005F09EF908E0204605F004FB04E02046B5
:1083B00005F060F800E000BF00BF70BD2DE9F0419E
:1083C00004460F46A6882088102806D0112817D00A
:1083D00019283DD01A2848D116E005F045FD304651
:1083E00005F01EFD20B900BF0420FEF78FFE06E059
:1083F000E07B022803D131461D4802F0B5FB34E092
:10840000304605F055FD30E0207A0509042D01DBEA
:10841000012000E000200246314615480C3001F0F2
:108420008FFC032D01DB012000E0002002463146D5
:108430000F48083001F084FC022D01DB012000E030
:108440000020024631460A48001D01F079FC0CE08C
:10845000207A48B9607AC0F3C0052A4631460448FC
:108460000C3001F06DFC00BF00BF00BFBDE8F08123
:10847000143500202DE9F04186B0044688461746A1
:108480001D4600BF1CB90E2006B0BDE8F08100BF3C
:1084900001AA29466069FFF799F9064600BF3046F0
:1084A00000B1F1E700BF4FF6FF70854201D001989F
:1084B00008B90520E8E70198007808B90820E3E743
:1084C0003888F42801DD0720DEE7002002900390C1
:1084D00004900590A088ADF80800CDF814800497AA
:1084E00001208DF80A0002A92846AEDFCCE7000083
:1084F00070B58EB004460E463E4B0FCB09AD0FC58E
:1085000000BF14B90E200EB070BD00BF00BF0EB981
:108510000E20F8E700BF3068A061214609A862DF9D
:10852000054600BF284600B1EDE700BF20788DF872
:1085300036000120ADF83400A21C0DA9A8DF0546C5
:1085400000BF284600B1DEE700BF202101A8FDF7EB
:10855000A8FF0220ADF8040020788DF80600F42072
:10856000ADF808000120ADF80A008DF810009DF864
:10857000110020F0080008308DF811009DF811005E
:1085800020F00400001D8DF8110001208DF8150069
:108590008DF81600608804F10C0201A900F028FE95
:1085A00005460DB12846AEE7202101A8FDF779FF69
:1085B0000320ADF8040020788DF80600F420ADF813
:1085C00008000120ADF80A008DF810009DF8110098
:1085D00020F0100010308DF8110001208DF81500EA
:1085E0008DF816008DF817006088221D01A900F093
:1085F000FFFD88E74CF6020070B504460D4605B154
:1086000004B970BD2E462088102804D0502807D009
:1086100057280FD109E02146304604F07BFF0AE0DD
:108620002146304605F0F2F905E02146304605F0D6
:1086300029F900E000BF00BF00BFE2E770B50446C3
:108640000D462846FDF738FF2080656070BD70B587
:108650000446204606F0CCFD054605F0010070BD3D
:108660002DE9F04105460E46002432782146641C6F
:108670006A5472782146641C6A5400BF022C01D1EE
:10868000012000E00020074627B900BF0020FEF7C8
:108690003DFD00BF00BF2046BDE8F08138B503F0C6
:1086A00057FE044600BF254625B100BF2846FEF709
:1086B0002DFD00BF00BF002000906946012003F09F
:1086C00099FC044600BF254625B100BF2846FEF7A9
:1086D0001DFD00BF00BF684603F05AFD044600BF01
:1086E000254625B100BF2846FEF710FD00BF00BF9C
:1086F00038BD000001460148405C704704F60200A6
:1087000010B50146094B585C00BF4FF0A04423460A
:1087100000BFD3F81045C44004F001040CB101209F
:1087200000E00020024682F0010010BD04F60200C5
:108730007CB500240DE00848055D0326002000906C
:108740003346024601460190284602F0F8FD00BF7C
:10875000641C042CEFD37CBD04F6020010B5044663
:1087600004F0010008B100F04BF804F0020008B179
:10877000FFF7DEFF10BD000010B502460949885C16
:1087800000BF4FF0A0442146D1F8043501248440B5
:108790009C43C1F80845012484401C40C1F80C45A5
:1087A00000BF10BD00F6020010B504460249085D86
:1087B000012102F0ACFE10BD00F6020010B5044627
:1087C0000249085D002102F0A2FE10BD00F6020081
:1087D00010B50146094B585C00BF4FF0A04423463A
:1087E00000BFD3F80445C44004F001040CB10120DB
:1087F00000E00020024682F0010010BD00F60200F9
:108800007CB500240CE00948055D0020009003467B
:10881000012211460190284602F091FD00BF641C20
:10882000042CF0D300F004F87CBD000000F6020038
:1088300010B5002403E02046FFF7B6FF641C042CAB
:10884000F9D310BD10B5002403E02046FFF7B6FFB2
:10885000641C042CF9D310BD02464FF0FF300021F8
:1088600006E0054B5B5C934201D1084602E0491CDF
:108870000429F6D300BF704704F6020070B5054620
:108880000C4600260648056014B1204605F094FF0A
:108890000448006810B9FEF7F1FA0646304670BD8C
:1088A000B02B0020B42B002010B5002000F014FBEA
:1088B000044600BF1CB1062C01D0204610BD00BFED
:1088C000012000F009FB044600BF1CB1062C01D0BA
:1088D0002046F3E700BF0020F0E700002DE9F0415B
:1088E00006460F464FF0000800243046FFF7B4FF5D
:1088F0000446042C3ED20FB3012F02D0022F38D1F0
:1089000030E004EB4400214911F8008004EB4400FE
:108910000844407850B11E4A4FF480411D48006819
:10892000FEF786FC05460DB91948067004EB4400B5
:10893000164908448078184908551AE01548006817
:10894000FEF7A5FC1448005D04EB44010F4A1144F6
:108950008978884205D104EB44001146084490F818
:10896000028006E004EB44000849084490F80180C6
:1089700000BF00BFB8F1000F06D00848006818B16A
:108980004046064909688847BDE8F081A8340020C0
:10899000A82B002010F60200A92B0020802B00201D
:1089A00010B50446042C03D22046FFF7A9FE10BDE3
:1089B0000020FCE770B50546042D06D0072D15D024
:1089C0000A2D29D105F09BFE27E0132114480088C9
:1089D00076DF0446082C08D000BF264626B100BF2B
:1089E0003046FEF793FB00BF00BF16E00C4800883E
:1089F0004FF6FF7188420ED10A48FFF7BAF80446D5
:108A0000082C08D000BF264626B100BF3046FEF72E
:108A10007DFB00BF00BF00E000BF00BF70BD0000D5
:108A2000202B0020502D002030B503460020042BC1
:108A300023D2012A07D1012903D103F10E04E4B2A4
:108A400000E00024224679B1012902D0022911D187
:108A500004E003EB43040A4D2A550DE003EB430405
:108A6000074D2C44627007E003EB4304044D2C4493
:108A7000A27001E0072000BF00E0072030BD000029
:108A8000A834002070B5044600250548007800F0A1
:108A9000010018B1204600F05BF80546284670BD7D
:108AA000342B00202DE9F04105460F4600241F48D5
:108AB00005601F48076005F0020000B3002606E0CD
:108AC000012211463046FFF7AFFF0446761C042E04
:108AD00001D2002CF4D034B940F2333204211548CD
:108AE000FEF75CFA044614B9FEF742FA04462CB9C4
:108AF000114A00211148FEF751FB044600BF05F062
:108B0000010080B10120FFF729FE2CB90C4A002199
:108B10000C48FEF743FB04462CB90B4A01210B48D5
:108B2000FEF73CFB04462046BDE8F081342B0020D4
:108B3000802B002014F602004190020010F6020083
:108B4000D1A2020008F60200656F02000CF60200D6
:108B50002DE9F047044600260025DA48007820B1C8
:108B60000020D849087001F09FFB182C7ED2DFE866
:108B700004F00C16174A7EB2F6F4F3F2F1F0EFEEC1
:108B8000EDECEBEAE9E8E7E6E5E401F08DFBCE4841
:108B90000068FEF77CFB0646CC4804708DE100BF00
:108BA0000020FFF715FE58B10020FFF7FDFD022C55
:108BB00002D14FF4E16001E04FF47A60054609E02C
:108BC0000020FFF7FBFD022C01D1C82001E04FF48B
:108BD000C8700546BD4804704FF40040A5FB001066
:108BE0004FF47A73CF1840F100015A000023384641
:108BF000FDF7FAFB814600224946B3480068FEF7BC
:108C000017FB064659E10020FFF7E2FD58B10020AE
:108C1000FFF7CAFD032C02D14FF4487001E04FF476
:108C20007A60054609E00020FFF7C8FD032C01D15A
:108C3000C82001E04FF4C8700546A44804704FF402
:108C40000040A5FB00104FF47A728F1840F100012C
:108C5000520000233846FDF7C7FB814600224946F3
:108C600099480068FEF7E4FA064626E124E1002070
:108C7000FFF7AEFD58B10020FFF796FD042C02D19E
:108C80004FF47A6001E04FF47A6005460AE0002074
:108C9000FFF794FD042C02D14FF4C87001E04FF4AB
:108CA000C8700546894804704FF40040A5FB0010C9
:108CB0004FF47A73CF1840F100015A000023384670
:108CC000FDF792FB8146002249467F480068FEF787
:108CD000AFFA0646F1E00020FFF77AFD50B1002020
:108CE000FFF762FD052C01D1C82001E04FF47A6046
:108CF000054609E00020FFF761FD052C01D1C820E1
:108D000001E04FF4C8700546704804704FF400400D
:108D1000A5FB00204FF47A73D71840F100015A00E8
:108D200000233846FDF760FB81460022494666482D
:108D30000068FEF77DFA0646BFE0B8E0B6E0AAE0BC
:108D4000A1E098E092E05FE05DE05BE059E057E091
:108D500051E042E033E024E015E00EE0FFE70020C0
:108D6000FFF70AFD59480470002240F26661564838
:108D70000068FEF75DFA06469FE00020FFF71EFD43
:108D80005248047099E001204E490870FFF7F4FC46
:108D9000002240F266614C480068FEF749FA064638
:108DA0008BE0012047490870FFF7E6FC00224FF4F2
:108DB000005145480068FEF73BFA06467DE0012079
:108DC00040490870FFF7D8FC002240F266613E4837
:108DD0000068FEF72DFA06466FE001203949087059
:108DE000FFF7CAFC00224FF4005137480068FEF735
:108DF0001FFA064661E0FFF725FD344804705CE089
:108E000000BF00BF00BF00BF31480068FEF73FFA57
:108E10000646C4F1110515B30EBB012D18D9A8B231
:108E2000C82148434FF4004180FB01104FF47A728F
:108E30008F1840F10001520000233846FDF7D4FAA4
:108E400081460022494622480068FEF7F1F90646AD
:108E50000220FFF7B3FC01201E49087005E0022044
:108E6000FFF7A2FC00201B49087026E001F01CFA65
:108E70001648047021E001F017FA0020FFF79EFC6D
:108E80001248047019E001F00FFA0120FFF796FC78
:108E90000E48047011E001F007FA0020FFF78EFC85
:108EA0000120FFF78BFC0948047006E000BFFFF7C4
:108EB000C9FC0648047000E000BF00BF3046BDE8B2
:108EC000F0870000312B002008F60200302B002034
:108ED0000CF60200382B002010B504460121204674
:108EE00006F049FB10BD00002DE9FC4704460D4685
:108EF0001646A71C4FF001080020019001A8FEF7BC
:108F0000B7FA3048406828602E4840682D49896883
:108F1000411A2D480068401CA0EB010915E0012111
:108F20002A4801F03EFE01F00FFA824651462748DA
:108F300001F037FE2348406822498968411A2248D7
:108F40000068401CA0EB010900BF4F45E7D8B8F10D
:108F5000000F30D00021009176B1009921F003017B
:108F6000491C0091009921F00401091D009100990C
:108F700064F3891100910DE0009921F00301891C2F
:108F80000091009921F00401091D0091009964F3FA
:108F90009F5100910B4949680B4A12681140094AD8
:108FA0000C3202EB8100009901600649496839449E
:108FB0000C3A516000BF9DF80400FEF75FFA40468E
:108FC000BDE8FC878C380020D02C0020A83C002075
:108FD00070B504460D460A2D03D10D212046FFF73A
:108FE000F7FFA168481CA06020684554D4E901102F
:108FF000884202D3204602F09CF870BD0448806885
:1090000003494968884201D1012070470020FCE7EC
:109010008C3800200246002108E0074B1B6803EB58
:10902000C1000378934200D17047491C034800787F
:109030008142F2DB0020F7E7282C00202C2C0020B6
:1090400010B5044620780221FFF748FC10BD00004F
:10905000F8B5054612490320FFF724FD044600BF7A
:10906000264626B100BF3046FEF750F800BF00BFCD
:1090700069460020FFF702FC044600BF264626B1E1
:1090800000BF3046FEF742F800BF00BF9DF8000069
:10909000022801D1012000E000202870F8BD000066
:1090A000B58902004FF0FF31054A42F82010082828
:1090B00004DBFF23A0F10801503253547047000035
:1090C000983500200146024850F821007047000002
:1090D000983500202DE9F04F03460C464FF0FF393C
:1090E0000AB1002000E0082084460AB1082000E010
:1090F0000C208046614624E0154850F82100401CB1
:10910000F0B91D460846274616464FFA80FBDFF8A1
:1091100040A00AF1300A0AF805B0DFF834A04AF896
:1091200020704EB94FFA85FBA0F1080ADFF820E065
:109130000EF1500E0EF80AB000BF4FFA81F902E0AE
:10914000491C4145D8D300BF4846BDE8F08F000018
:10915000983500200146014840567047C835002028
:109160002DE9F04389B006460D4614461F46DDF84A
:10917000408000BF0DB1012000E000208146B9F120
:10918000000F04D100BF0020FDF7C0FF00BF00BFEB
:1091900000BF002C01DD012000E000208146B9F174
:1091A000000F04D100BF0020FDF7B0FF00BF00BFDB
:1091B000202101A8FDF775F9ADF80460ADF808406D
:1091C000ADF80A4003959DF8110020F00200801CC4
:1091D0008DF811008DF81570424601A903480088EA
:1091E00000F006F809B0BDE8F0830000C02B0020B5
:1091F00070B590B006460C461546A07818B9012007
:109200008DF80E0002E0A0788DF80E002088ADF8F1
:109210000C0000200290607C02A905F011FAA07CED
:109220000DF1090105F00CFAE07B08B1012000E026
:1092300000209DF80A1060F3C3018DF80A10207C0D
:1092400008B1012000E000209DF80A1060F304112D
:109250008DF80A10207B08B1012000E000209DF865
:109260000A1060F300018DF80A10207D08B1022079
:1092700000E001209DF80A1060F342018DF80A1009
:109280001C2109A8FDF70DF9607BC0F3001018B987
:10929000607BC0F34010F8B100200090E07C0DF13D
:1092A000010105F0CDF900BF9DF8000020F00F008E
:1092B000401C8DF800009DF8000020F0F0001030F8
:1092C0008DF8000000BF9DF8020020F00600801C11
:1092D0008DF80200CDF838D0607B8DF82400A07B9B
:1092E0008DF82500142104A8FDF7DBF803A80490ED
:1092F00002A80590A088ADF81C00A06820B1E08805
:10930000ADF81800A0680890A069002849D0002096
:109310000190A0690088ADF82C00A0694088ADF8E4
:109320002E00A06940680A9001A80D90A169087BF1
:1093300001A905F085F9A169487B0DF1050105F04A
:109340007FF9A069807A08B1012000E000209DF833
:10935000061060F3C3018DF80610A069C07A08B149
:10936000012000E000209DF8061060F304118DF844
:109370000610A069007A08B1012000E000209DF8E5
:10938000061060F300018DF80610A069807B08B11B
:10939000022000E001209DF8061060F342018DF8E4
:1093A0000610E06908B1E0690C902B4604AA09A9EF
:1093B0003046AADF10B070BD70B505460DB9094C36
:1093C00001E0084C083409E0204600F053FF06464F
:1093D00006B904E028467168884700BFF4E700BF7B
:1093E00070BD00008C35002010B504462CB901205A
:1093F000064948700020FFF7DFFF012C04D101204F
:1094000002498870FFF7D8FF10BD000084350020A6
:109410002DE9F047024613468C46D3E90245DCE9C4
:109420000267B6EB040877EB050002D30120BDE824
:10943000F0870020FBE701468878012805D191F8E4
:109440002000012801D100207047886A042802D03A
:10945000486A042801D10020F6E70120F4E733B57B
:109460008BB00546002000900C9878B100240BE0EA
:1094700021460CA801F069FB28B1009A501C00900D
:1094800001A820F81240641C142CF1D32C22694648
:109490002846FCF7EDFF0DB030BD014608880628D0
:1094A00008DB0888B0F5486F06DD08884FF6FF72C4
:1094B000904201D0072070474888062808DB48887A
:1094C000B0F5486F06DD48884FF6FF72904201D034
:1094D0000720F0E708884FF6FF72904208D04888CE
:1094E000904205D008884A88904201DD0720E2E7D3
:1094F0000020E0E72DE9F04107460D461446984666
:109500002088801D404502D90C20BDE8F0813846F6
:10951000FFF7C3FF064600BF304600B1F5E700BFC6
:109520000520218868542088401C20801220218832
:1095300068542088401C208022885119388805F002
:109540005DFE21880844208022885119788805F022
:1095500055FE2188084420800020D6E710B5044637
:1095600000BF2046FDF7D2FD00BF10BD30B587B06B
:109570001C216846FCF795FF002000904FF4A030B6
:1095800001904FF4F020029003208DF80C00002091
:10959000ADF80E008DF810000948059009480690B6
:1095A0006846FEF769FC044600BF254625B100BFAA
:1095B0002846FDF7ABFD00BF00BF07B030BD00007F
:1095C00049D402005D950200F8B505460C46607A64
:1095D00088B9207A10B91048476801E00E488768BA
:1095E0002A4639466068FDF723FE064616B1304626
:1095F00004F0C2FE0EE0002020720748406948B126
:1096000001208DF80000ADF802500348416968461A
:10961000884700BFF8BD0000EC34002010B50122DF
:1096200000210846FFF700FA044600BF1CB1072CD2
:1096300001D0204610BD00BF072202210120FFF704
:10964000F3F9044600BF1CB1072C01D02046F1E716
:1096500000BF042202210020FFF7E6F9044600BF04
:109660001CB1072C01D02046E4E700BF0020E1E751
:109670002DE9FF4105460C46002002900390ADF80D
:109680000840ADF80A40009001906A4602A92846B9
:1096900090DF0646002E32D0304602F075FF0746B6
:1096A00019491A4A891AC908012242EA01403B466F
:1096B0002A46174902F0FCF9BDF8000010B9BDF8C0
:1096C000020068B1BDF80230BDF800200E490F4F0E
:1096D000C91BC908012747EA01400EA102F0E8F9B9
:1096E000BDF8040058B1BDF804200749074BC91A5A
:1096F000C908012343EA0140164902F0CDF930467A
:1097000004B0BDE8F0810000C8010300C0010300FF
:1097100010FA02005468652072657175657374658E
:10972000642054582F5258207061636B6574206C0C
:10973000656E67746820697320746F6F206C6F6E3C
:10974000672062792025752F2575206F63746574F5
:10975000732E00005CFA020070B588B005460C4616
:109760001646142103A8FCF79CFEA07818B9012026
:109770008DF80A0002E0A0788DF80A002088ADF884
:10978000080002A80390A07901A904F059FFE0792C
:109790000DF1050104F054FFE07808B1012000E06C
:1097A00000209DF8061060F3C3018DF806102079A3
:1097B00008B1012000E000209DF8061060F30411BC
:1097C0008DF80610607908B1012000E000209DF8B6
:1097D000061060F300018DF80610207A08B102200F
:1097E00000E001209DF8061060F342018DF806109C
:1097F00001A804906089ADF81400A089ADF81600A6
:10980000E089ADF8180020690790324603A9284680
:10981000ABDF08B070BD00002DE9F04180460024A8
:1098200014E01248006800EBC405287803F04CF8F7
:1098300007466878012800D100E00020784080F0D9
:1098400001062878314600F0CDF9641C08480078FC
:109850008442E6DB0748D0E9001000235940584015
:10986000014301D005F0A8F9BDE8F081282C0020C3
:109870002C2C0020582C002010B50021034801F0AA
:10988000B1F9044684F3100010BD0000A83C00208C
:1098900070B505460C464FF4803000FA04F12846B6
:1098A00000F085F970BD70B505460C464FF4A07008
:1098B00000EB840086B23146284600F00BFA70BDFA
:1098C0002DE9F04704460D4616461F464FF48030FA
:1098D00000FA05F84FF4A07000EB85001FFA80F93C
:1098E00026F07F464146206802F032FB4146206860
:1098F00002F028FB4946206802F01DFB324629464B
:10990000206802F00FFB4146206802F01EFB1FB1E9
:109910004146206802F01FFBBDE8F08710B5044601
:10992000206802F004FB10BD2DE9F04704460D4607
:1099300017466079324941F820706079314901EB6E
:10994000C000007968B108262F49304A891AC90831
:10995000022242EA01402EA102F094F83046BDE80E
:10996000F08729882068C0F8081500BF94F9042002
:10997000AB7810461946002808DB4FEA417C4FEAD5
:109980001C68DFF8B0C00CF800800BE04FEA417CA7
:109990004FEA1C69DFF8A0C000F00F08A8F1040826
:1099A0000CF8089000BF00BF94F904100846002886
:1099B0000DDB00BF00BF00F01F0301229A404309E6
:1099C0009B0003F1E023C3F8002100BF00BF00BFEC
:1099D00000BF012061790B4A02EBC1010871607977
:1099E000114641F8304000260749084A891AC9083B
:1099F000032242EA014011A102F044F83046AEE7EA
:109A0000A02C0020A42C002018020300C001030099
:109A100052544320696E7374616E636520616C7289
:109A20006561647920696E697469616C697A6564DD
:109A30002E00000000E400E018ED00E05254433A2C
:109A400020696E697469616C697A65642E00000032
:109A500010B5014691F90400002807DB00F01F0350
:109A600001229A40024B440943F8242000BF10BD54
:109A700000E200E070B505460C4622460221284669
:109A800000F0A1F870BD10B504464FF48271204675
:109A900000F020F910BD10B504460021206802F046
:109AA0005DFA10BD10B504460421206802F056FA94
:109AB00010BD2DE9F84F04468846154699464FF4E7
:109AC000803000FA08FA4FF4A07000EB88001FFA0B
:109AD00080FB25F07F455146204600F068F820685D
:109AE00002F025FA06464146206802F015FA009079
:109AF00032464146206802F015FA5946206802F0C5
:109B00001AFA3146009804F08BFF012806D1102084
:109B100002F0EEFD5946206802F00DFA206802F0CE
:109B200006FA06463146284604F07AFF07465146B3
:109B3000206802F00AFA012F0FD16A1C4146206802
:109B400002F0F0F9102002F0D3FD206802F0EFF9E6
:109B5000B04225D00D20BDE8F88F2A464146206846
:109B600002F0E0F9206802F0E2F90646681E31468C
:109B700004F056FF07466FF07F40A0EB0900B842A3
:109B800001D20D20E7E75FB96A1C4146206802F068
:109B9000C9F9206802F0CBF9B04201D00D20DAE714
:109BA00001225146204600F00EF80020D3E770B5A0
:109BB00004460D462946206802F0C4F9294620686B
:109BC00002F0C6F970BD70B504460E461546314622
:109BD000206802F0BAF91DB13146206802F0BBF9E5
:109BE00070BD0000F8B505460C46284604F0F8FDA7
:109BF00005286AD2DFE800F003212A393F00DCB1F2
:109C00000121284604F0FCFD002000906846FDF785
:109C10002FFC2A460126002730463946FCF715FC62
:109C20002B4AD2E9003218431143294A03C29DF856
:109C30000000FDF723FC00BF47E00CB1022000E06C
:109C400000200146284604F0DBFD3EE044B103213C
:109C5000284604F0D5FD0121284605F0EBFB03E082
:109C60000121284604F0CCFD2FE01CB90421284630
:109C700004F0C6FD29E024B10321284604F0C0FD0C
:109C800022E00021284604F0BBFD0021284605F013
:109C9000D1FB002000906846FDF7EAFB2A4601262A
:109CA000002730463946FCF7D0FB0A46C143D04373
:109CB000074B0CCB11401840054AC2E900109DF833
:109CC0000000FDF7DBFB00BF00BF00BFF8BD0000D8
:109CD000582C002070B505460C462868015929B15A
:109CE0002146286802F027F9012070BD0020FCE71A
:109CF00070B504460D462A460021204600F00EF8B5
:109D0000A068401CA06070BD01468A68C868801ABF
:109D1000704701468A68C868801A704710B5836822
:109D20000B44848823400468E35C137010BDC26850
:109D300083881A4003689954C268521CC2607047F5
:109D400070B505460E46144624B13146284600F04B
:109D50000BFF03E03146284600F0E8FE70BD30B549
:109D600004461088C01C984201D90C2030BD022046
:109D7000158848551088401C1080012015884855CA
:109D80001088401C108015884C551088401C10808D
:109D90000020EBE770B504460D4640F21442115B1B
:109DA0000122D4F81004FDF7FDFD064606B135701A
:109DB00004F13C0204F5826104F1540072DF70BDCD
:109DC0003EB500BF9DF8000020F00F00401C009041
:109DD0009DF8000020F0F0001030009000BF0C2231
:109DE00014A168467CDF044600BF254625B100BFAC
:109DF0002846FDF78BF900BF00BF002001900290BC
:109E00001020ADF804003C20ADF806000020ADF8AD
:109E100008004FF4C870ADF80A0001A87ADF0446C4
:109E200000BF254625B100BF2846FDF76FF900BFEA
:109E300000BF3EBD506163656D616B65722D56312B
:109E40000000000070B505460C4660880D49098881
:109E5000884215D1208840F67721884210D1A08809
:109E6000C01E094908800949094A891AC9080322FC
:109E700042EA014004490B880A8806A101F018FE55
:109E800070BD0000202B0020222B00203002030098
:109E9000C001030044617461206C656E2069732009
:109EA00073657420746F2030782558282564290044
:109EB00070B50E490E4800F03DFF044600BF254630
:109EC00025B100BF2846FDF721F900BF00BFF721EB
:109ED000074800F020FF044600BF254625B100BF1B
:109EE0002846FDF713F900BF00BF70BD459E020074
:109EF000302D002070B50B48FFF710FD0A4B0CCB3E
:109F0000841843F10005094903C9201A75EB0100C3
:109F100004D24FF08073E41845F10005204629462D
:109F200070BD0000602C0020702C0020782C0020D8
:109F30002DE9F04104468846E0B2FFF76BF805468C
:109F4000287802F0C1FC07466878012800D100E0BB
:109F50000020784080F001064EB10648D0E900109C
:109F6000002359405840014301D104F025FEBDE8CB
:109F7000F0810000582C002010B501F0F5FB08B965
:109F800001F07EFF10BD0000024600210CE001EB55
:109F90008100074B33F82000904204D101EB81008F
:109FA00003EB80007047491C0029F0D00020F9E73E
:109FB000D83400202DE9FC5F83460E4691461F46AB
:109FC000DDE90C45002E01DA704200E030468246A1
:109FD0004FF0010803E09AFBF9FA08F10108CA45BD
:109FE000F9DA474500D9B84634B1002E03DB05F055
:109FF0000400042800D1641E05F0020000B167B11E
:10A0000005F0010048B944B104E0641E202158461F
:10A01000FEF7DEFF0CB1A045F7D3002E05DA76423D
:10A020002D215846FEF7D4FF07E005F00400042870
:10A0300003D12B215846FEF7CBFF05F00200022882
:10A040000DD105F0010050B94FB944B104E0641ED0
:10A0500030215846FEF7BCFF0CB1A045F7D33B4674
:10A060004A4631465846CDE9004505F0D3F8BDE8EB
:10A07000FC9F00002DE9F04104460E464FF48E711E
:10A08000206802F09CFA4FF4A271206802F097FA5F
:10A090001A49206802F0A2FA206802F03DFB05464A
:10A0A000374628463946002804DB4A07130E144A6F
:10A0B000135408E04A074FEA126C124A00F00F03EB
:10A0C0001B1F02F803C000BF00BF206802F024FB82
:10A0D0000546284600280DDB00BF00BF00F01F0228
:10A0E000012191404209920002F1E022C2F80011E0
:10A0F00000BF00BF00BF00BFBDE8F08180000200CC
:10A1000000E400E018ED00E02DE9F04104460E46C1
:10A110004FF48871206802F082FA4FF49071206841
:10A1200002F07DFA4FF49271206802F078FA4FF451
:10A13000A271206802F073FA4FF4AC71206802F04B
:10A140006EFA1B49206802F07AFA206802F0E8FAF9
:10A150000546374628463946002804DB4A07130ED1
:10A16000144A135408E04A074FEA126C124A00F0EE
:10A170000F031B1F02F803C000BF00BF206802F0DE
:10A18000CFFA0546284600280DDB00BF00BF00F0CF
:10A190001F02012191404209920002F1E022C2F81F
:10A1A000001100BF00BF00BF00BFBDE8F08100008C
:10A1B0001003420000E400E018ED00E030B5024674
:10A1C00000201378C3F38003D3B1137803F00303A3
:10A1D000012B02D0022B10D107E01388C3F38313A5
:10A1E0009B1C0C6823440B6008E00B680225146874
:10A1F00005EB945423440B6000E000BF00BF012036
:10A2000030BD2DE9F0410446A08800EB020CB4F803
:10A210000480904501DD104600E0A088A8EB000511
:10A22000E088C618B4F80680984501DD184600E0BD
:10A23000E088A8EB00074888B4F80080404504DBBC
:10A240004888B4F80280404502DD0020BDE8F08176
:10A250008888A84202D38888604501D90020F5E7A4
:10A26000C888B84202D3C888B04201D90020EDE7BF
:10A270000120EBE70146086808B102680A607047F0
:10A2800010B5044622460121002001F0F3F8002118
:10A2900005E054F8210008B1012010BD491C002937
:10A2A000F7D00020F9E7000010B50848007850B159
:10A2B000002405E0022C02D02046FEF775FA641C4B
:10A2C000042CF7D301E0FEF7B3FA10BD382B0020C1
:10A2D00010B504460448007800F0010018B10348A6
:10A2E0000078FEF735FC10BD342B0020302B002009
:10A2F00010B502F0C1F920B902F0E4F900200149DB
:10A30000887010BD84350020F7210180172141801D
:10A31000002101714171FB2181711B21C1717047C5
:10A3200070B54FF48041002001F030FC044600BFBE
:10A33000254625B100BF2846FCF7E8FE00BF00BF58
:10A3400001F0FEF970BD70472DE9FF4100272E484E
:10A3500000F020FC2C48001F00F01CFC2B488068FB
:10A3600003902B4805680398284028490C3101EBDD
:10A37000800800BF03A94046FFF720FF30B10398D3
:10A38000284022490C3101EB800800E000E0F1E7B1
:10A3900000BF00240AE00398411C284003911B4998
:10A3A0000C3151F820004DF82400641C022CF2D32B
:10A3B000009800F0030001280DD0022814D1BDF848
:10A3C00006700421009801EB9050401E039901EBA8
:10A3D0009000039009E0BDF806700098C0F3831068
:10A3E00003990844039000E000BF00BF0648001F27
:10A3F00000F0C9FB064616B1044903988860384648
:10A4000004B0BDE8F0810000A43C00208C3800209E
:10A41000D02C002008B504F05FFDFFF781FF04F0A9
:10A42000DBFB6846FEF714FEFCF792FC03F084FCAD
:10A43000FEF734F9FFF7C4FCFFF73AFD04F048F8E3
:10A44000FCF746FDFFF792F80749084A891AC90840
:10A45000032242EA014006A101F014FBFCF770FD63
:10A4600000BFFFF789FDFCE730020300C0010300D5
:10A470004465627567206C6F6767696E6720666FF9
:10A48000722055415254206F7665722052545420E8
:10A49000737461727465642E000000002DE9F04150
:10A4A00005460E4614469846A888871C2088801CBE
:10A4B0003844404502D90C20BDE8F081FE2F01D977
:10A4C0000C20F9E7781C218870542088401C2080DB
:10A4D000FF20218870542088401C208022889119F8
:10A4E000288804F08BFE218808442080A888002852
:10A4F0000DDDA86808B90720DEE7AA882388981927
:10A50000A968FBF7B5FF2088A988084420800020AF
:10A51000D2E72DE9FF4F87B0044691461E46A2467A
:10A520002546BAF806009AF805104843001F069021
:10A53000BAF806B0301DB0FBFBF00590301DB0FB43
:10A54000FBF10BFB11000490D9F80000811906986B
:10A55000814202D90698801B01E0D9F80000074625
:10A56000C9F8007003E02D680598401E0590059815
:10A570000028F8D103900498ABEB0008B84501D946
:10A58000384600E04046804623E003990898084496
:10A590000290281D049908440190149828B142465D
:10A5A000DDE90110FBF764FF04E04246DDE901014B
:10A5B000FBF75EFF002004902D68A7EB08070398C7
:10A5C00040440390BB4501D9384600E058468046D8
:10A5D00000BF002FD9D10BB0BDE8F08F70B5034696
:10A5E0000C469CB101F0F6FA054600220AE0084844
:10A5F00000EB820108881E68B04202D11A60002078
:10A6000070BD521CAA42F2D30520F9E70020F7E7FB
:10A61000000000002DE9F84F05460F461446984605
:10A620002878012804D1687810B90720BDE8F88F90
:10A630002088801C404508D82878012807D1208828
:10A64000801C69780844404501D90C20EEE7208839
:10A65000A8EB0000801E86B200962188891CC819CC
:10A6600069467DDF814600BF484600B1DEE700BF96
:10A670002878022804D06878BDF80010884206DBEC
:10A68000BDF80000B04202DC4FF0090A0BE04FF0C9
:10A69000080A2878012805D16878B04202DC687879
:10A6A000009000E00096BDF80000FE2801D90C20C3
:10A6B000BCE7BDF80000401C218878542088401C6D
:10A6C0002080208807F800A02088401C2080208857
:10A6D000BDF80010084420800020A7E71448006857
:10A6E000401C38B913480178124808300078C0F38C
:10A6F000031205E00E4801684FF08050D0F8342175
:10A70000062913D1D01E05280ED2DFE800F003057C
:10A7100007090B00012070470120FCE70120FAE740
:10A720000120F8E70120F6E70120F4E70020F2E736
:10A7300030010010E00F00F014480068401C38B9E8
:10A7400013480178124808300078C0F3031205E07E
:10A750000E4801684FF08050D0F83421062913D1FB
:10A76000D01E05280ED2DFE800F0030507090B0014
:10A77000012070470120FCE70120FAE70120F8E7FB
:10A780000120F6E70120F4E70020F2E73001001095
:10A79000E00F00F014480068401C38B913480178F5
:10A7A000124808300078C0F3031205E00E48016833
:10A7B0004FF08050D0F83421062913D1D01E05283F
:10A7C0000ED2DFE800F0030507090B0001207047F7
:10A7D0000120FCE70120FAE70120F8E70120F6E775
:10A7E0000120F4E70020F2E730010010E00F00F054
:10A7F0000F4801780E4808300078C0F3031206298C
:10A8000013D1D01E05280ED2DFE800F0030507099A
:10A810000B00012070470020FCE70020FAE7002031
:10A82000F8E70020F6E70020F4E70020F2E7000058
:10A83000E00F00F00E4801684FF08050D0F834214E
:10A84000062913D1D01E05280ED2DFE800F003053B
:10A8500007090B00002070470020FCE70020FAE702
:10A860000120F8E70120F6E70120F4E70020F2E7F5
:10A87000300100100E4801684FF08050D0F83421AC
:10A88000062913D1D01E05280ED2DFE800F00305FB
:10A8900007090B00002070470020FCE70020FAE7C2
:10A8A0000020F8E70120F6E70120F4E70020F2E7B6
:10A8B0003001001014480068401C38B91348017872
:10A8C000124808300078C0F3031205E00E48016812
:10A8D0004FF08050D0F83421062913D1D01E05281E
:10A8E0000ED2DFE800F0030507090B0001207047D6
:10A8F0000120FCE70120FAE70120F8E70120F6E754
:10A900000120F4E70020F2E730010010E00F00F032
:10A910000F4801780E4808300078C0F3031206296A
:10A9200013D1D01E05280ED2DFE800F00305070979
:10A930000B00012070470020FCE70020FAE7002010
:10A94000F8E70020F6E70020F4E70020F2E7000037
:10A95000E00F00F014480068401C38B91348017833
:10A96000124808300078C0F3031205E00E48016871
:10A970004FF08050D0F83421062913D1D01E05287D
:10A980000ED2DFE800F0030507090B000120704735
:10A990000120FCE70120FAE70120F8E70120F6E7B3
:10A9A0000120F4E70020F2E730010010E00F00F092
:10A9B0000F4801780E4808300078C0F303120629CA
:10A9C00013D1D01E05280ED2DFE800F003050709D9
:10A9D0000B00012070470020FCE70020FAE7002070
:10A9E000F8E70020F6E70020F4E70020F2E7000097
:10A9F000E00F00F00F4801780E4808300078C0F3EF
:10AA00000312062913D1D01E05280ED2DFE800F06C
:10AA1000030507090B00012070470020FCE7002018
:10AA2000FAE70020F8E70020F6E70020F4E700202E
:10AA3000F2E70000E00F00F014480068401C38B94D
:10AA400013480178124808300078C0F3031205E07B
:10AA50000E4801684FF08050D0F83421062913D1F8
:10AA6000D01E05280ED2DFE800F0030507090B0011
:10AA7000002070470020FCE70120FAE70120F8E7FA
:10AA80000120F6E70120F4E70020F2E73001001092
:10AA9000E00F00F010B5044609B90E2010BD92FB7E
:10AAA000F3F003FB102008B10920F7E72160002034
:10AAB0006060A060A281E38100BFEFE770B504464B
:10AAC0000D4629462046FBF7A7FB18B12A882168C6
:10AAD000881870BD0020FCE770B505460C4620883C
:10AAE0006188884204D12846FBF7D8FB012070BD5D
:10AAF0000020FCE770B504460D4629462046FBF7CA
:10AB0000B0FB18B16A882168881870BD0020FCE786
:10AB100070B505460C4620886188884204D12846D5
:10AB2000FBF796FB012070BD0020FCE770B50546E1
:10AB30000C4604F01F0301229A40D143620905EB41
:10AB4000820000F039F8064670BD10B5024648098B
:10AB500052F8200001F01F040123A340184008B15F
:10AB6000012010BD0020FCE770B505460C4604F03E
:10AB70001F03012202FA03F1620905EB820000F0D3
:10AB80003CF8064670BD10B504460021204600F092
:10AB90001EF810BD10B504460121204600F02DF826
:10ABA00010BDF8B504460D466A4629462046FBF717
:10ABB000CAFB06460098F8BDF8B504460D466A463D
:10ABC00029462046FBF7A5FB06460098F8BDF8B5D8
:10ABD00004460D466A4629462046FBF79AFB064680
:10ABE0003046F8BDF8B504460D466A46294620466B
:10ABF000FBF776FB06463046F8BDF8B504460D4631
:10AC00006A4629462046FBF777FB06460098F8BDC2
:10AC1000F8B504460D466A4629462046FBF7A0FBD8
:10AC200006460098F8BDF8B50446002600200090BE
:10AC30006846FCF71DFC206800686168884215D9E9
:10AC400020680068401E226810600178204600F0ED
:10AC500033F80646207A21680978401AC5B2206880
:10AC60000079A84201DA2068057100BF9DF8000054
:10AC7000FCF704FC3046F8BD0246D068081A138A77
:10AC8000B0FBF3F0C0B27047F8B504460D462E464F
:10AC9000002000906846FCF7EBFB31462046FFF7AA
:10ACA000EBFF21680A68511C2368196010709DF839
:10ACB0000000FCF7E3FBF8BD0246138AD06801FBF5
:10ACC0000300704710B5014600BF09B90E2010BD42
:10ACD00000BF087A0B79C01AC2B2D1E900301860FF
:10ACE00005E008680368581C0C6820601A70101E84
:10ACF000A2F10103DAB2F4D10B68187100BFE6E7E4
:10AD000030B502460B46D40802F0070201209040FD
:10AD10001D5D284030BD024600BF0AB90E207047B5
:10AD200000BF172901DBF72901DD0720F7E71180B4
:10AD30000020F4E770B504460E4600BF0CB90E20A3
:10AD400070BD00BF2661F72020806080FB2020714D
:10AD5000002505E0A11D01EBC500FFF7D5FA6D1C2C
:10AD6000002DF7D00020EBE72DE9F0470646884696
:10AD70004546B488012C01DBBDE8F08730882428E3
:10AD800020D006DC102809D011280CD0232823D18C
:10AD90001DE03A280CD055281ED10EE03146284639
:10ADA00002F0FAFB19E03146284602F0CBFC14E031
:10ADB0003146284602F034FD0FE03146284602F0C5
:10ADC000CBFC0AE03146284602F048FC05E031465B
:10ADD000284602F06DFC00E000BF00BFA81D00EB9C
:10ADE000C400007918B3A81D30F834102046A5DF40
:10ADF000074657B90021A81D00EBC40001710121CD
:10AE0000A81D00EBC400417110E0112F0ED0384690
:10AE100001F0BAFB81460749074A891AC90801228D
:10AE200042EA01404A4605A100F036FE00BF00BFDD
:10AE3000A2E70000C8010300C001030073645F6261
:10AE40006C655F67617474635F65786368616E6782
:10AE5000655F6D74755F72657175657374282920FF
:10AE600072657475726E65642025732E0000000093
:10AE7000024600BF0AB90E20704700BF00BF10781D
:10AE8000DE2801D00820F7E700BF51800020F3E75B
:10AE9000024600BF0AB90E20704700BF00BF09B9C3
:10AEA0000E20F9E700BF1078DE2801D10820F3E773
:10AEB00008685060DE2010704FF6FF705080002050
:10AEC000EAE770B504460E4600BF06B970BD00BF84
:10AED00000BF04B9FAE700BF354600BF2878DE2876
:10AEE00000D0F3E700BFA0886988884202D12846D5
:10AEF00004F08AFA2088012806D0022809D01128F7
:10AF000011D0512817D109E0211D284602F042FD39
:10AF100012E0211D284602F03CFD0DE0211D2846CF
:10AF200002F0E2FC08E0A0886988884202D14FF66E
:10AF3000FF70688000E000BF00BF00BFC6E70146A9
:10AF40004FF08040405808B1012070470020FCE7D6
:10AF500008B500224FF080410A500958009100BF07
:10AF600008BD000001490860704700000803004068
:10AF7000012291070A50704710B500240F4800784D
:10AF800008B1852411E000200C4988604860086100
:10AF9000C8600B4801F084FB044601F033FA08B99D
:10AFA00001F074FB01200549087001F065FB10B148
:10AFB000012002498870204610BD00008435002021
:10AFC000E993020008B5002000906846FCF750FAAB
:10AFD0000748C068401E0649C8600846C06808B9EE
:10AFE000FFF786F99DF80000FCF748FA08BD00005D
:10AFF000843500202DE9F04188B004460F461546FF
:10B0000026781A4840F826501949386941F8260030
:10B01000787F18498855202239466846FBF728FA78
:10B0200004964FF0000820781249085C50B10DB129
:10B03000114800E0002002466946201D01F0EEFFA5
:10B0400080460EE020780B49085C50B90DB10B48E2
:10B0500000E000200246694604F10C0001F0A6FE63
:10B060008046404608B0BDE8F08100000C2C00206E
:10B07000102C0020142C002085F00200A1EE02000C
:10B080002DE9F04104460D461646002720780C496C
:10B09000085C30B132462946201D01F0FFFF07460B
:10B0A0000AE020780649085C30B93246294604F1A6
:10B0B0000C0001F0BFFE07463846BDE8F0810000F5
:10B0C000142C00202DE9F04104460D4616460027B9
:10B0D00020780C49085C30B132462946201D02F028
:10B0E00079F807460AE020780649085C30B932460C
:10B0F000294604F10C0001F02FFF07463846BDE851
:10B10000F0810000142C00200FB438B504460598D7
:10B1100010B938BC5DF814FB0020009006A8009020
:10B120006A462046059900F012F80020009000BF02
:10B13000EFE770B50446A06800B970BDD4E9040318
:10B14000A268216898470020A06000BFF5E72DE9BC
:10B15000FC5F82460D4614460DB9BDE8FC9F00BF5A
:10B160002E786D1C06B9E1E0252E70D100274FF036
:10B17000010900BF2E782B2E0CD02D2E02D0302EA0
:10B180000CD103E047F001076D1C0AE047F002070D
:10B190006D1C06E047F004076D1C02E04FF000094B
:10B1A00000BF00BFB9F1000FE4D14FF0000800BFAD
:10B1B0002A2E06D12168081D2060086880446D1C75
:10B1C0000DE02E78302E01DB392E00DD07E06D1CFE
:10B1D000A6F1300008EB880100EB4108E8E700BF6A
:10B1E0004FF0000B2E782E2E10D16D1C00BF2E7844
:10B1F000302E01DB392E00DD07E06D1CA6F130009A
:10B200000BEB8B0100EB410BF1E700BF2E7800BF89
:10B210006C2E01D0682E02D16D1C2E7800E000E06B
:10B22000F6E700BF692E21D008DC252E6DD0582E00
:10B2300039D0632E0CD0642E6CD116E0702E4CD019
:10B24000732E3ED0752E1FD0782E63D12AE065E094
:10B250002168081D2060D1F8009009F0FF000190DE
:10B2600050460199FDF7B4FE55E000BF2168081D66
:10B270002060D1F800905B460A2249465046CDE94D
:10B280000087FEF797FE46E02168081D2060D1F890
:10B2900000905B460A2249465046CDE9008703F0FC
:10B2A000B9FF38E000BF2168081D2060D1F8009088
:10B2B0005B46102249465046CDE9008703F0AAFFBD
:10B2C00029E02168081D2060086801903B4642463D
:10B2D0005046019903F024FB1DE02168081D206001
:10B2E000D1F8009030215046FDF772FE782150468B
:10B2F000FDF76EFE002008210B461022CDE900105C
:10B300004946504603F086FF05E025215046FDF7EB
:10B310005FFE00E000BF00BF6D1C03E031465046F9
:10B32000FDF756FE287800287FF41AAF00BF9AF880
:10B330000C0010B15046FFF7FCFE00BF0DE7F0B562
:10B34000DDE9054500BF4FF0A0473E4641EA420710
:10B3500047EA830747EA042747EA054C06F5E06712
:10B3600047F820C0F0BDF0B5DDE9054500BF4FF05E
:10B37000A0473E4641EA420747EA830747EA0427D7
:10B3800047EA054C06F5E06747F820C0F0BDF0B588
:10B39000DDE9054500BF4FF0A0473E4641EA4207C0
:10B3A00047EA830747EA042747EA054C06F5E067C2
:10B3B00047F820C0F0BDF0B5DDE9054500BF4FF00E
:10B3C000A0473E4641EA420747EA830747EA042787
:10B3D00047EA054C06F5E06747F820C0F0BD7CB5AC
:10B3E00005460C4600200090234602460146019087
:10B3F0002846FFF7CCFF7CBD7CB505460C460020F7
:10B40000009023460246014601902846FFF7D3FFED
:10B410007CBD1CB504460020009003460122114665
:10B4200001902046FFF7B3FF1CBD1CB50446002069
:10B43000009003460122114601902046FFF7BBFF12
:10B440001CBD10B50A4600BF4FF0A043194601F5D8
:10B45000E06353F8203023F4403401F5E06343F80F
:10B46000204053F8203043EA024401F5E06343F8FA
:10B47000204010BD38B503460A4C24680094184695
:10B480000BE05DF82040D4F8204514605DF82050B2
:10B490001468C5F82045121D401C5C188442F0D881
:10B4A00038BD00005CF6020001464A0900230AB9D3
:10B4B0005B1E00BF00BF01F01F0101208840184043
:10B4C00008B1012070470020FCE7014600BF4FF0A3
:10B4D000A040024600BFD2F81005C84000F00100AD
:10B4E000704700BF4FF0A0410A46012303FA00F164
:10B4F000C2F8081500BF704700BF4FF0A0410A46D0
:10B50000012303FA00F1C2F8081500BF704710B517
:10B5100061B900BF00BF4FF0A0421346012404FAF6
:10B5200000F2C3F80C2500BF00BF0CE000BF00BF55
:10B530004FF0A0421346012404FA00F2C3F8082594
:10B5400000BF00BF00BF10BD01460148084470475E
:10B550000060004038B504462046FFF7F5FF0021A3
:10B5600001602046FFF7F0FF0068009000BF38BD83
:10B5700010B504462046FFF7E7FF0068012800D118
:10B5800010BD0020FCE70000014908607047000082
:10B590000463004070B504460E46FCF739F80546D2
:10B5A000681C08B9284670BDE8B2E168087100BFA0
:10B5B0000C48D0F8100430B90A48C0F810440020F4
:10B5C000E16808600BE00748D0F81004C068006824
:10B5D000E16808600348D0F81004C0680460284699
:10B5E000E1E700008C380020704710B5FBF73CF90C
:10B5F00010BD704738B504460D4604484023044A40
:10B6000029460090204600F005F838BDB5E3020059
:10B61000F43600202DE9F04F93B082460E461746CF
:10B620009846DDF87090304600F0CBFB18210DA84D
:10B63000FAF737FF0D97CDF83880CDF84890002500
:10B640002B46082207A9304600F0D8FB08250998A8
:10B650000A90BDF82000ADF82C00BDF82200ADF82E
:10B660002E0000208DF83100079800F0030001281B
:10B670001BD107984FEA902B0798C0F3C2008DF8B2
:10B6800030000798C0F38314A2002B4601A930466E
:10B6900000F0B4FB05EB84050DA80AAB224601A916
:10B6A0000090584600F0CCFA27E0079800F003001D
:10B6B000022822D107984FEA905B0798C0F3C20096
:10B6C0008DF8300000BFBBF1080F01D2584600E0F2
:10B6D000082004462B46224605A9304600F08EFB82
:10B6E0002544ABEB040B0DAB0AAA214605A800F0DC
:10B6F000EFF9BBF1000FE6D100BF304600F06FFB61
:10B7000013B0BDE8F08F000010B502460B4C04EBFF
:10B71000C203012906D0022906D0032906D0042934
:10B7200008D105E0022007E0042005E0187903E0D5
:10B73000587901E0002000BF00BF10BDC001030028
:10B7400010B54FF0FF34FFF750FF04210548FFF715
:10B7500021FF044600BF01200249C968487100BFAB
:10B7600010BD0000B00103002DE9F04F8BB0FDF7D4
:10B7700045FC18B100200BB0BDE8F08F0020B749A0
:10B78000C1F8180400BF00BF00BFBFF34F8F00BF58
:10B7900000BF00BF084680680A90B14804680A9854
:10B7A00020400C3101EB800A002500260020069085
:10B7B00000BF0AA95046FEF701FDA8B1A748D0F87E
:10B7C000180488B9A54840680A99884205D8A34852
:10B7D0004068A24988600020CDE70A9820409F4930
:10B7E0000C3101EB800A00E000E0E2E700BF002737
:10B7F0000BE00A98411C20400A9198490C3151F8FD
:10B80000200007A941F827007F1C022FF1D30798D9
:10B8100000F0030002287CD10798800D059050218C
:10B820000798B1EB905F02DD0798800D00E0502093
:10B830008146079869F39F50079009F1080004902A
:10B840000798C0F3C20006908648049900F05CFA9D
:10B850000546002D5BD0284600F0B3FA3346082297
:10B8600007A9284600F0DBFA08360A982040611C38
:10B87000081A4FEA8008C14535D9B8F1000F06D043
:10B880000A98204075490C3101EB800001E07348B3
:10B890000C300390B8F1000F01D0404600E048465C
:10B8A00000F0FF0BB8F1000F02D06C480C3000E044
:10B8B00000200290B8F1000F02D0A9EB080000E0D0
:10B8C0000020C0B2019033465A462846039900F042
:10B8D000A6FA5E44029828B133462846DDE90121E4
:10B8E00000F09DFA0CE00A9820405C490C3101EB15
:10B8F000800B33464A465946284600F090FA00BF6E
:10B900000598C01C0A9901EB90000A9000BF44E022
:10B91000FFE7079800F0030001283ED10798C0F325
:10B920008310062803DA0798C0F3831000E006208E
:10B93000079960F3891107910798C0F3831000F10C
:10B9400002080798C0F3C20006904FEA88014548F4
:10B9500000F0DAF90546FDB1284600F032FA334628
:10B96000082207A9284600F05AFA083600270EE0F8
:10B970000A98421C20400A92384A0C3202EB80019D
:10B9800033460422284600F04AFA361D7F1C0798E9
:10B99000C0F38310B842EBD800BFE5B32F48D0F80E
:10B9A0001084D0F8180418B1284600F018FA31E0D5
:10B9B00019E04FF0000900BFD8F80C0040790128C9
:10B9C00000D18146B9F1000F08D000BFD8F80000BF
:10B9D000294602684046904700BF00BFD8F80C00D7
:10B9E000D0F8008000BFB8F1000FE2D1284600F087
:10B9F000F6F90020059005A8FBF73AFD1748D0F8A6
:10BA0000180410B915490A9888609DF81400FBF7CE
:10BA100035FD00BF1DE0FFE71048D0F810840AE0B4
:10BA2000C146D9F8000081684846884700BFD8F869
:10BA30000C00D0F80080B8F1000FF1D10A490B4A90
:10BA4000891AC908022242EA014009A100F01AF845
:10BA500000BFFDF7D3FA80F001008CE68C3800209F
:10BA6000D02C00205002030030020300C00103006C
:10BA70004261636B656E647320666C7573686564A0
:10BA80000000000070B504460D4600231A46294602
:10BA9000204602F00BFF70BDF8B505460E46144671
:10BAA000009401236A463146284602F0FFFEF8BDA5
:10BAB0002DE9FC4106460F4614461D4600940195AB
:10BAC00002236A463946304602F0F0FEBDE8FC81AA
:10BAD0002DE9F05F07460E4690461D46082E01D917
